{
  "address": "0x95e9C3C11146FF50e5827  \"address\": \"0x95e9C3C11146FF50e58277eDDa00B848643B5B00\",\n7eDDa00B848643B5B00",
  "abi": [
    {
      "anonymous": false,
      "inputs": [
        {
          "indexed": false,
          "internalType": "string",
          "name": "action",
          "type": "string"
        },
        {
          "indexed": false,
          "internalType": "bool",
          "name": "pauseState",
          "type": "bool"
        }
      ],
      "name": "ActionPaused",
      "type": "event"
    },
    {
      "anonymous": false,
      "inputs": [
        {
          "indexed": false,
          "internalType": "contract CToken",
          "name": "cToken",
          "type": "address"
        },
        {
          "indexed": false,
          "internalType": "string",
          "name": "action",
          "type": "string"
        },
        {
          "indexed": false,
          "internalType": "bool",
          "name": "pauseState",
          "type": "bool"
        }
      ],
      "name": "ActionPaused",
      "type": "event"
    },
    {
      "anonymous": false,
      "inputs": [
        {
          "indexed": true,
          "internalType": "contract CToken",
          "name": "cToken",
          "type": "address"
        },
        {
          "indexed": false,
          "internalType": "uint256",
          "name": "newSpeed",
          "type": "uint256"
        }
      ],
      "name": "CompSpeedUpdated",
      "type": "event"
    },
    {
      "anonymous": false,
      "inputs": [
        {
          "indexed": true,
          "internalType": "contract CToken",
          "name": "cToken",
          "type": "address"
        },
        {
          "indexed": true,
          "internalType": "address",
          "name": "borrower",
          "type": "address"
        },
        {
          "indexed": false,
          "internalType": "uint256",
          "name": "compDelta",
          "type": "uint256"
        },
        {
          "indexed": false,
          "internalType": "uint256",
          "name": "compBorrowIndex",
          "type": "uint256"
        }
      ],
      "name": "DistributedBorrowerComp",
      "type": "event"
    },
    {
      "anonymous": false,
      "inputs": [
        {
          "indexed": true,
          "internalType": "contract CToken",
          "name": "cToken",
          "type": "address"
        },
        {
          "indexed": true,
          "internalType": "address",
          "name": "supplier",
          "type": "address"
        },
        {
          "indexed": false,
          "internalType": "uint256",
          "name": "compDelta",
          "type": "uint256"
        },
        {
          "indexed": false,
          "internalType": "uint256",
          "name": "compSupplyIndex",
          "type": "uint256"
        }
      ],
      "name": "DistributedSupplierComp",
      "type": "event"
    },
    {
      "anonymous": false,
      "inputs": [
        {
          "indexed": false,
          "internalType": "uint256",
          "name": "error",
          "type": "uint256"
        },
        {
          "indexed": false,
          "internalType": "uint256",
          "name": "info",
          "type": "uint256"
        },
        {
          "indexed": false,
          "internalType": "uint256",
          "name": "detail",
          "type": "uint256"
        }
      ],
      "name": "Failure",
      "type": "event"
    },
    {
      "anonymous": false,
      "inputs": [
        {
          "indexed": false,
          "internalType": "contract CToken",
          "name": "cToken",
          "type": "address"
        },
        {
          "indexed": false,
          "internalType": "bool",
          "name": "isComped",
          "type": "bool"
        }
      ],
      "name": "MarketComped",
      "type": "event"
    },
    {
      "anonymous": false,
      "inputs": [
        {
          "indexed": false,
          "internalType": "contract CToken",
          "name": "cToken",
          "type": "address"
        },
        {
          "indexed": false,
          "internalType": "address",
          "name": "account",
          "type": "address"
        }
      ],
      "name": "MarketEntered",
      "type": "event"
    },
    {
      "anonymous": false,
      "inputs": [
        {
          "indexed": false,
          "internalType": "contract CToken",
          "name": "cToken",
          "type": "address"
        },
        {
          "indexed": false,
          "internalType": "address",
          "name": "account",
          "type": "address"
        }
      ],
      "name": "MarketExited",
      "type": "event"
    },
    {
      "anonymous": false,
      "inputs": [
        {
          "indexed": false,
          "internalType": "contract CToken",
          "name": "cToken",
          "type": "address"
        }
      ],
      "name": "MarketListed",
      "type": "event"
    },
    {
      "anonymous": false,
      "inputs": [
        {
          "indexed": true,
          "internalType": "contract CToken",
          "name": "cToken",
          "type": "address"
        },
        {
          "indexed": false,
          "internalType": "uint256",
          "name": "newBorrowFactor",
          "type": "uint256"
        }
      ],
      "name": "NewBorrowFactor",
      "type": "event"
    },
    {
      "anonymous": false,
      "inputs": [
        {
          "indexed": false,
          "internalType": "uint256",
          "name": "oldCloseFactorMantissa",
          "type": "uint256"
        },
        {
          "indexed": false,
          "internalType": "uint256",
          "name": "newCloseFactorMantissa",
          "type": "uint256"
        }
      ],
      "name": "NewCloseFactor",
      "type": "event"
    },
    {
      "anonymous": false,
      "inputs": [
        {
          "indexed": false,
          "internalType": "contract CToken",
          "name": "cToken",
          "type": "address"
        },
        {
          "indexed": false,
          "internalType": "uint256",
          "name": "oldCollateralFactorMantissa",
          "type": "uint256"
        },
        {
          "indexed": false,
          "internalType": "uint256",
          "name": "newCollateralFactorMantissa",
          "type": "uint256"
        }
      ],
      "name": "NewCollateralFactor",
      "type": "event"
    },
    {
      "anonymous": false,
      "inputs": [
        {
          "indexed": false,
          "internalType": "uint256",
          "name": "oldLiquidationIncentiveMantissa",
          "type": "uint256"
        },
        {
          "indexed": false,
          "internalType": "uint256",
          "name": "newLiquidationIncentiveMantissa",
          "type": "uint256"
        }
      ],
      "name": "NewLiquidationIncentive",
      "type": "event"
    },
    {
      "anonymous": false,
      "inputs": [
        {
          "indexed": false,
          "internalType": "address",
          "name": "oldPauseGuardian",
          "type": "address"
        },
        {
          "indexed": false,
          "internalType": "address",
          "name": "newPauseGuardian",
          "type": "address"
        }
      ],
      "name": "NewPauseGuardian",
      "type": "event"
    },
    {
      "anonymous": false,
      "inputs": [
        {
          "indexed": false,
          "internalType": "contract PriceOracle",
          "name": "oldPriceOracle",
          "type": "address"
        },
        {
          "indexed": false,
          "internalType": "contract PriceOracle",
          "name": "newPriceOracle",
          "type": "address"
        }
      ],
      "name": "NewPriceOracle",
      "type": "event"
    },
    {
      "constant": false,
      "inputs": [
        {
          "internalType": "contract Unitroller",
          "name": "unitroller",
          "type": "address"
        }
      ],
      "name": "_become",
      "outputs": [],
      "payable": false,
      "stateMutability": "nonpayable",
      "type": "function"
    },
    {
      "constant": true,
      "inputs": [],
      "name": "_borrowGuardianPaused",
      "outputs": [
        {
          "internalType": "bool",
          "name": "",
          "type": "bool"
        }
      ],
      "payable": false,
      "stateMutability": "view",
      "type": "function"
    },
    {
      "constant": true,
      "inputs": [],
      "name": "_mintGuardianPaused",
      "outputs": [
        {
          "internalType": "bool",
          "name": "",
          "type": "bool"
        }
      ],
      "payable": false,
      "stateMutability": "view",
      "type": "function"
    },
    {
      "constant": false,
      "inputs": [
        {
          "internalType": "contract CToken",
          "name": "cToken",
          "type": "address"
        },
        {
          "internalType": "uint256",
          "name": "newBorrowFactor",
          "type": "uint256"
        }
      ],
      "name": "_setBorrowFactor",
      "outputs": [],
      "payable": false,
      "stateMutability": "nonpayable",
      "type": "function"
    },
    {
      "constant": false,
      "inputs": [
        {
          "internalType": "contract CToken",
          "name": "cToken",
          "type": "address"
        },
        {
          "internalType": "bool",
          "name": "state",
          "type": "bool"
        }
      ],
      "name": "_setBorrowPaused",
      "outputs": [
        {
          "internalType": "bool",
          "name": "",
          "type": "bool"
        }
      ],
      "payable": false,
      "stateMutability": "nonpayable",
      "type": "function"
    },
    {
      "constant": false,
      "inputs": [
        {
          "internalType": "uint256",
          "name": "newCloseFactorMantissa",
          "type": "uint256"
        }
      ],
      "name": "_setCloseFactor",
      "outputs": [
        {
          "internalType": "uint256",
          "name": "",
          "type": "uint256"
        }
      ],
      "payable": false,
      "stateMutability": "nonpayable",
      "type": "function"
    },
    {
      "constant": false,
      "inputs": [
        {
          "internalType": "contract CToken",
          "name": "cToken",
          "type": "address"
        },
        {
          "internalType": "uint256",
          "name": "newCollateralFactorMantissa",
          "type": "uint256"
        }
      ],
      "name": "_setCollateralFactor",
      "outputs": [
        {
          "internalType": "uint256",
          "name": "",
          "type": "uint256"
        }
      ],
      "payable": false,
      "stateMutability": "nonpayable",
      "type": "function"
    },
    {
      "constant": false,
      "inputs": [
        {
          "internalType": "address[]",
          "name": "_allMarkets",
          "type": "address[]"
        },
        {
          "internalType": "uint256[]",
          "name": "_compSpeeds",
          "type": "uint256[]"
        }
      ],
      "name": "_setCompSpeeds",
      "outputs": [],
      "payable": false,
      "stateMutability": "nonpayable",
      "type": "function"
    },
    {
      "constant": false,
      "inputs": [
        {
          "internalType": "uint256",
          "name": "newLiquidationIncentiveMantissa",
          "type": "uint256"
        }
      ],
      "name": "_setLiquidationIncentive",
      "outputs": [
        {
          "internalType": "uint256",
          "name": "",
          "type": "uint256"
        }
      ],
      "payable": false,
      "stateMutability": "nonpayable",
      "type": "function"
    },
    {
      "constant": false,
      "inputs": [
        {
          "internalType": "contract CToken",
          "name": "cToken",
          "type": "address"
        },
        {
          "internalType": "uint256",
          "name": "newLiquidationIncentiveMantissa",
          "type": "uint256"
        }
      ],
      "name": "_setLiquidationIncentive",
      "outputs": [
        {
          "internalType": "uint256",
          "name": "",
          "type": "uint256"
        }
      ],
      "payable": false,
      "stateMutability": "nonpayable",
      "type": "function"
    },
    {
      "constant": false,
      "inputs": [
        {
          "internalType": "contract CToken",
          "name": "cToken",
          "type": "address"
        },
        {
          "internalType": "bool",
          "name": "state",
          "type": "bool"
        }
      ],
      "name": "_setMintPaused",
      "outputs": [
        {
          "internalType": "bool",
          "name": "",
          "type": "bool"
        }
      ],
      "payable": false,
      "stateMutability": "nonpayable",
      "type": "function"
    },
    {
      "constant": false,
      "inputs": [
        {
          "internalType": "address",
          "name": "newPauseGuardian",
          "type": "address"
        }
      ],
      "name": "_setPauseGuardian",
      "outputs": [
        {
          "internalType": "uint256",
          "name": "",
          "type": "uint256"
        }
      ],
      "payable": false,
      "stateMutability": "nonpayable",
      "type": "function"
    },
    {
      "constant": false,
      "inputs": [
        {
          "internalType": "contract PriceOracle",
          "name": "newOracle",
          "type": "address"
        }
      ],
      "name": "_setPriceOracle",
      "outputs": [
        {
          "internalType": "uint256",
          "name": "",
          "type": "uint256"
        }
      ],
      "payable": false,
      "stateMutability": "nonpayable",
      "type": "function"
    },
    {
      "constant": false,
      "inputs": [
        {
          "internalType": "bool",
          "name": "state",
          "type": "bool"
        }
      ],
      "name": "_setSeizePaused",
      "outputs": [
        {
          "internalType": "bool",
          "name": "",
          "type": "bool"
        }
      ],
      "payable": false,
      "stateMutability": "nonpayable",
      "type": "function"
    },
    {
      "constant": false,
      "inputs": [
        {
          "internalType": "contract TorchesConfig",
          "name": "_torchesConfig",
          "type": "address"
        }
      ],
      "name": "_setTorchesConfig",
      "outputs": [],
      "payable": false,
      "stateMutability": "nonpayable",
      "type": "function"
    },
    {
      "constant": false,
      "inputs": [
        {
          "internalType": "bool",
          "name": "state",
          "type": "bool"
        }
      ],
      "name": "_setTransferPaused",
      "outputs": [
        {
          "internalType": "bool",
          "name": "",
          "type": "bool"
        }
      ],
      "payable": false,
      "stateMutability": "nonpayable",
      "type": "function"
    },
    {
      "constant": false,
      "inputs": [
        {
          "internalType": "contract CToken",
          "name": "cToken",
          "type": "address"
        }
      ],
      "name": "_supportMarket",
      "outputs": [
        {
          "internalType": "uint256",
          "name": "",
          "type": "uint256"
        }
      ],
      "payable": false,
      "stateMutability": "nonpayable",
      "type": "function"
    },
    {
      "constant": true,
      "inputs": [
        {
          "internalType": "address",
          "name": "",
          "type": "address"
        },
        {
          "internalType": "uint256",
          "name": "",
          "type": "uint256"
        }
      ],
      "name": "accountAssets",
      "outputs": [
        {
          "internalType": "contract CToken",
          "name": "",
          "type": "address"
        }
      ],
      "payable": false,
      "stateMutability": "view",
      "type": "function"
    },
    {
      "constant": true,
      "inputs": [],
      "name": "admin",
      "outputs": [
        {
          "internalType": "address",
          "name": "",
          "type": "address"
        }
      ],
      "payable": false,
      "stateMutability": "view",
      "type": "function"
    },
    {
      "constant": true,
      "inputs": [
        {
          "internalType": "uint256",
          "name": "",
          "type": "uint256"
        }
      ],
      "name": "allMarkets",
      "outputs": [
        {
          "internalType": "contract CToken",
          "name": "",
          "type": "address"
        }
      ],
      "payable": false,
      "stateMutability": "view",
      "type": "function"
    },
    {
      "constant": false,
      "inputs": [
        {
          "internalType": "address",
          "name": "cToken",
          "type": "address"
        },
        {
          "internalType": "address",
          "name": "borrower",
          "type": "address"
        },
        {
          "internalType": "uint256",
          "name": "borrowAmount",
          "type": "uint256"
        }
      ],
      "name": "borrowAllowed",
      "outputs": [
        {
          "internalType": "uint256",
          "name": "",
          "type": "uint256"
        }
      ],
      "payable": false,
      "stateMutability": "nonpayable",
      "type": "function"
    },
    {
      "constant": true,
      "inputs": [
        {
          "internalType": "address",
          "name": "",
          "type": "address"
        }
      ],
      "name": "borrowGuardianPaused",
      "outputs": [
        {
          "internalType": "bool",
          "name": "",
          "type": "bool"
        }
      ],
      "payable": false,
      "stateMutability": "view",
      "type": "function"
    },
    {
      "constant": true,
      "inputs": [
        {
          "internalType": "uint256",
          "name": "_seizeTokenAmount",
          "type": "uint256"
        }
      ],
      "name": "calculateSeizeTokenAllocation",
      "outputs": [
        {
          "internalType": "uint256",
          "name": "liquidatorAmount",
          "type": "uint256"
        },
        {
          "internalType": "uint256",
          "name": "safetyVaultAmount",
          "type": "uint256"
        }
      ],
      "payable": false,
      "stateMutability": "view",
      "type": "function"
    },
    {
      "constant": true,
      "inputs": [
        {
          "internalType": "address",
          "name": "account",
          "type": "address"
        },
        {
          "internalType": "contract CToken",
          "name": "cToken",
          "type": "address"
        }
      ],
      "name": "checkMembership",
      "outputs": [
        {
          "internalType": "bool",
          "name": "",
          "type": "bool"
        }
      ],
      "payable": false,
      "stateMutability": "view",
      "type": "function"
    },
    {
      "constant": false,
      "inputs": [
        {
          "internalType": "address",
          "name": "holder",
          "type": "address"
        },
        {
          "internalType": "contract CToken[]",
          "name": "cTokens",
          "type": "address[]"
        }
      ],
      "name": "claimComp",
      "outputs": [],
      "payable": false,
      "stateMutability": "nonpayable",
      "type": "function"
    },
    {
      "constant": false,
      "inputs": [
        {
          "internalType": "address[]",
          "name": "holders",
          "type": "address[]"
        },
        {
          "internalType": "contract CToken[]",
          "name": "cTokens",
          "type": "address[]"
        },
        {
          "internalType": "bool",
          "name": "borrowers",
          "type": "bool"
        },
        {
          "internalType": "bool",
          "name": "suppliers",
          "type": "bool"
        }
      ],
      "name": "claimComp",
      "outputs": [],
      "payable": false,
      "stateMutability": "nonpayable",
      "type": "function"
    },
    {
      "constant": false,
      "inputs": [
        {
          "internalType": "address",
          "name": "holder",
          "type": "address"
        }
      ],
      "name": "claimComp",
      "outputs": [],
      "payable": false,
      "stateMutability": "nonpayable",
      "type": "function"
    },
    {
      "constant": true,
      "inputs": [],
      "name": "closeFactorMantissa",
      "outputs": [
        {
          "internalType": "uint256",
          "name": "",
          "type": "uint256"
        }
      ],
      "payable": false,
      "stateMutability": "view",
      "type": "function"
    },
    {
      "constant": true,
      "inputs": [
        {
          "internalType": "address",
          "name": "",
          "type": "address"
        }
      ],
      "name": "compAccrued",
      "outputs": [
        {
          "internalType": "uint256",
          "name": "",
          "type": "uint256"
        }
      ],
      "payable": false,
      "stateMutability": "view",
      "type": "function"
    },
    {
      "constant": true,
      "inputs": [
        {
          "internalType": "address",
          "name": "",
          "type": "address"
        }
      ],
      "name": "compBorrowState",
      "outputs": [
        {
          "internalType": "uint224",
          "name": "index",
          "type": "uint224"
        },
        {
          "internalType": "uint32",
          "name": "block",
          "type": "uint32"
        }
      ],
      "payable": false,
      "stateMutability": "view",
      "type": "function"
    },
    {
      "constant": true,
      "inputs": [
        {
          "internalType": "address",
          "name": "",
          "type": "address"
        },
        {
          "internalType": "address",
          "name": "",
          "type": "address"
        }
      ],
      "name": "compBorrowerIndex",
      "outputs": [
        {
          "internalType": "uint256",
          "name": "",
          "type": "uint256"
        }
      ],
      "payable": false,
      "stateMutability": "view",
      "type": "function"
    },
    {
      "constant": true,
      "inputs": [],
      "name": "compClaimThreshold",
      "outputs": [
        {
          "internalType": "uint256",
          "name": "",
          "type": "uint256"
        }
      ],
      "payable": false,
      "stateMutability": "view",
      "type": "function"
    },
    {
      "constant": true,
      "inputs": [],
      "name": "compInitialIndex",
      "outputs": [
        {
          "internalType": "uint224",
          "name": "",
          "type": "uint224"
        }
      ],
      "payable": false,
      "stateMutability": "view",
      "type": "function"
    },
    {
      "constant": true,
      "inputs": [],
      "name": "compRate",
      "outputs": [
        {
          "internalType": "uint256",
          "name": "",
          "type": "uint256"
        }
      ],
      "payable": false,
      "stateMutability": "view",
      "type": "function"
    },
    {
      "constant": true,
      "inputs": [
        {
          "internalType": "address",
          "name": "",
          "type": "address"
        }
      ],
      "name": "compSpeeds",
      "outputs": [
        {
          "internalType": "uint256",
          "name": "",
          "type": "uint256"
        }
      ],
      "payable": false,
      "stateMutability": "view",
      "type": "function"
    },
    {
      "constant": true,
      "inputs": [
        {
          "internalType": "address",
          "name": "",
          "type": "address"
        },
        {
          "internalType": "address",
          "name": "",
          "type": "address"
        }
      ],
      "name": "compSupplierIndex",
      "outputs": [
        {
          "internalType": "uint256",
          "name": "",
          "type": "uint256"
        }
      ],
      "payable": false,
      "stateMutability": "view",
      "type": "function"
    },
    {
      "constant": true,
      "inputs": [
        {
          "internalType": "address",
          "name": "",
          "type": "address"
        }
      ],
      "name": "compSupplyState",
      "outputs": [
        {
          "internalType": "uint224",
          "name": "index",
          "type": "uint224"
        },
        {
          "internalType": "uint32",
          "name": "block",
          "type": "uint32"
        }
      ],
      "payable": false,
      "stateMutability": "view",
      "type": "function"
    },
    {
      "constant": true,
      "inputs": [],
      "name": "comptrollerImplementation",
      "outputs": [
        {
          "internalType": "address",
          "name": "",
          "type": "address"
        }
      ],
      "payable": false,
      "stateMutability": "view",
      "type": "function"
    },
    {
      "constant": false,
      "inputs": [
        {
          "internalType": "address[]",
          "name": "cTokens",
          "type": "address[]"
        }
      ],
      "name": "enterMarkets",
      "outputs": [
        {
          "internalType": "uint256[]",
          "name": "",
          "type": "uint256[]"
        }
      ],
      "payable": false,
      "stateMutability": "nonpayable",
      "type": "function"
    },
    {
      "constant": false,
      "inputs": [
        {
          "internalType": "address",
          "name": "cTokenAddress",
          "type": "address"
        }
      ],
      "name": "exitMarket",
      "outputs": [
        {
          "internalType": "uint256",
          "name": "",
          "type": "uint256"
        }
      ],
      "payable": false,
      "stateMutability": "nonpayable",
      "type": "function"
    },
    {
      "constant": true,
      "inputs": [
        {
          "internalType": "address",
          "name": "cToken",
          "type": "address"
        },
        {
          "internalType": "address",
          "name": "to",
          "type": "address"
        },
        {
          "internalType": "uint256",
          "name": "flashLoanAmount",
          "type": "uint256"
        }
      ],
      "name": "flashLoanAllowed",
      "outputs": [
        {
          "internalType": "uint256",
          "name": "",
          "type": "uint256"
        }
      ],
      "payable": false,
      "stateMutability": "view",
      "type": "function"
    },
    {
      "constant": true,
      "inputs": [
        {
          "internalType": "address",
          "name": "account",
          "type": "address"
        }
      ],
      "name": "getAccountLiquidity",
      "outputs": [
        {
          "internalType": "uint256",
          "name": "",
          "type": "uint256"
        },
        {
          "internalType": "uint256",
          "name": "",
          "type": "uint256"
        },
        {
          "internalType": "uint256",
          "name": "",
          "type": "uint256"
        }
      ],
      "payable": false,
      "stateMutability": "view",
      "type": "function"
    },
    {
      "constant": true,
      "inputs": [],
      "name": "getAllMarkets",
      "outputs": [
        {
          "internalType": "contract CToken[]",
          "name": "",
          "type": "address[]"
        }
      ],
      "payable": false,
      "stateMutability": "view",
      "type": "function"
    },
    {
      "constant": true,
      "inputs": [
        {
          "internalType": "address",
          "name": "account",
          "type": "address"
        }
      ],
      "name": "getAssetsIn",
      "outputs": [
        {
          "internalType": "contract CToken[]",
          "name": "",
          "type": "address[]"
        }
      ],
      "payable": false,
      "stateMutability": "view",
      "type": "function"
    },
    {
      "constant": true,
      "inputs": [],
      "name": "getBlockNumber",
      "outputs": [
        {
          "internalType": "uint256",
          "name": "",
          "type": "uint256"
        }
      ],
      "payable": false,
      "stateMutability": "view",
      "type": "function"
    },
    {
      "constant": true,
      "inputs": [],
      "name": "getCompAddress",
      "outputs": [
        {
          "internalType": "address",
          "name": "",
          "type": "address"
        }
      ],
      "payable": false,
      "stateMutability": "view",
      "type": "function"
    },
    {
      "constant": true,
      "inputs": [
        {
          "internalType": "address",
          "name": "cToken",
          "type": "address"
        }
      ],
      "name": "getFlashLoanCap",
      "outputs": [
        {
          "internalType": "uint256",
          "name": "",
          "type": "uint256"
        }
      ],
      "payable": false,
      "stateMutability": "view",
      "type": "function"
    },
    {
      "constant": true,
      "inputs": [
        {
          "internalType": "address",
          "name": "account",
          "type": "address"
        },
        {
          "internalType": "address",
          "name": "cTokenModify",
          "type": "address"
        },
        {
          "internalType": "uint256",
          "name": "redeemTokens",
          "type": "uint256"
        },
        {
          "internalType": "uint256",
          "name": "borrowAmount",
          "type": "uint256"
        }
      ],
      "name": "getHypotheticalAccountLiquidity",
      "outputs": [
        {
          "internalType": "uint256",
          "name": "",
          "type": "uint256"
        },
        {
          "internalType": "uint256",
          "name": "",
          "type": "uint256"
        },
        {
          "internalType": "uint256",
          "name": "",
          "type": "uint256"
        }
      ],
      "payable": false,
      "stateMutability": "view",
      "type": "function"
    },
    {
      "constant": true,
      "inputs": [
        {
          "internalType": "address",
          "name": "cToken",
          "type": "address"
        }
      ],
      "name": "getLiquidationIncentive",
      "outputs": [
        {
          "internalType": "uint256",
          "name": "",
          "type": "uint256"
        }
      ],
      "payable": false,
      "stateMutability": "view",
      "type": "function"
    },
    {
      "constant": true,
      "inputs": [],
      "name": "isComptroller",
      "outputs": [
        {
          "internalType": "bool",
          "name": "",
          "type": "bool"
        }
      ],
      "payable": false,
      "stateMutability": "view",
      "type": "function"
    },
    {
      "constant": false,
      "inputs": [
        {
          "internalType": "address",
          "name": "cTokenBorrowed",
          "type": "address"
        },
        {
          "internalType": "address",
          "name": "cTokenCollateral",
          "type": "address"
        },
        {
          "internalType": "address",
          "name": "liquidator",
          "type": "address"
        },
        {
          "internalType": "address",
          "name": "borrower",
          "type": "address"
        },
        {
          "internalType": "uint256",
          "name": "repayAmount",
          "type": "uint256"
        }
      ],
      "name": "liquidateBorrowAllowed",
      "outputs": [
        {
          "internalType": "uint256",
          "name": "",
          "type": "uint256"
        }
      ],
      "payable": false,
      "stateMutability": "nonpayable",
      "type": "function"
    },
    {
      "constant": true,
      "inputs": [
        {
          "internalType": "address",
          "name": "cTokenBorrowed",
          "type": "address"
        },
        {
          "internalType": "address",
          "name": "cTokenCollateral",
          "type": "address"
        },
        {
          "internalType": "uint256",
          "name": "actualRepayAmount",
          "type": "uint256"
        }
      ],
      "name": "liquidateCalculateSeizeTokens",
      "outputs": [
        {
          "internalType": "uint256",
          "name": "",
          "type": "uint256"
        },
        {
          "internalType": "uint256",
          "name": "",
          "type": "uint256"
        }
      ],
      "payable": false,
      "stateMutability": "view",
      "type": "function"
    },
    {
      "constant": true,
      "inputs": [],
      "name": "liquidationIncentiveMantissa",
      "outputs": [
        {
          "internalType": "uint256",
          "name": "",
          "type": "uint256"
        }
      ],
      "payable": false,
      "stateMutability": "view",
      "type": "function"
    },
    {
      "constant": true,
      "inputs": [
        {
          "internalType": "address",
          "name": "",
          "type": "address"
        }
      ],
      "name": "markets",
      "outputs": [
        {
          "internalType": "bool",
          "name": "isListed",
          "type": "bool"
        },
        {
          "internalType": "uint256",
          "name": "collateralFactorMantissa",
          "type": "uint256"
        },
        {
          "internalType": "bool",
          "name": "isComped",
          "type": "bool"
        },
        {
          "internalType": "uint256",
          "name": "borrowFactorMantissa",
          "type": "uint256"
        },
        {
          "internalType": "uint256",
          "name": "liquidationIncentiveMantissa",
          "type": "uint256"
        }
      ],
      "payable": false,
      "stateMutability": "view",
      "type": "function"
    },
    {
      "constant": true,
      "inputs": [],
      "name": "maxAssets",
      "outputs": [
        {
          "internalType": "uint256",
          "name": "",
          "type": "uint256"
        }
      ],
      "payable": false,
      "stateMutability": "view",
      "type": "function"
    },
    {
      "constant": false,
      "inputs": [
        {
          "internalType": "address",
          "name": "cToken",
          "type": "address"
        },
        {
          "internalType": "address",
          "name": "minter",
          "type": "address"
        },
        {
          "internalType": "uint256",
          "name": "mintAmount",
          "type": "uint256"
        }
      ],
      "name": "mintAllowed",
      "outputs": [
        {
          "internalType": "uint256",
          "name": "",
          "type": "uint256"
        }
      ],
      "payable": false,
      "stateMutability": "nonpayable",
      "type": "function"
    },
    {
      "constant": true,
      "inputs": [
        {
          "internalType": "address",
          "name": "",
          "type": "address"
        }
      ],
      "name": "mintGuardianPaused",
      "outputs": [
        {
          "internalType": "bool",
          "name": "",
          "type": "bool"
        }
      ],
      "payable": false,
      "stateMutability": "view",
      "type": "function"
    },
    {
      "constant": true,
      "inputs": [],
      "name": "oracle",
      "outputs": [
        {
          "internalType": "contract PriceOracle",
          "name": "",
          "type": "address"
        }
      ],
      "payable": false,
      "stateMutability": "view",
      "type": "function"
    },
    {
      "constant": true,
      "inputs": [],
      "name": "pauseGuardian",
      "outputs": [
        {
          "internalType": "address",
          "name": "",
          "type": "address"
        }
      ],
      "payable": false,
      "stateMutability": "view",
      "type": "function"
    },
    {
      "constant": true,
      "inputs": [],
      "name": "pendingAdmin",
      "outputs": [
        {
          "internalType": "address",
          "name": "",
          "type": "address"
        }
      ],
      "payable": false,
      "stateMutability": "view",
      "type": "function"
    },
    {
      "constant": true,
      "inputs": [],
      "name": "pendingComptrollerImplementation",
      "outputs": [
        {
          "internalType": "address",
          "name": "",
          "type": "address"
        }
      ],
      "payable": false,
      "stateMutability": "view",
      "type": "function"
    },
    {
      "constant": false,
      "inputs": [
        {
          "internalType": "address",
          "name": "cToken",
          "type": "address"
        },
        {
          "internalType": "address",
          "name": "redeemer",
          "type": "address"
        },
        {
          "internalType": "uint256",
          "name": "redeemTokens",
          "type": "uint256"
        }
      ],
      "name": "redeemAllowed",
      "outputs": [
        {
          "internalType": "uint256",
          "name": "",
          "type": "uint256"
        }
      ],
      "payable": false,
      "stateMutability": "nonpayable",
      "type": "function"
    },
    {
      "constant": false,
      "inputs": [
        {
          "internalType": "address",
          "name": "cToken",
          "type": "address"
        },
        {
          "internalType": "address",
          "name": "redeemer",
          "type": "address"
        },
        {
          "internalType": "uint256",
          "name": "redeemAmount",
          "type": "uint256"
        },
        {
          "internalType": "uint256",
          "name": "redeemTokens",
          "type": "uint256"
        }
      ],
      "name": "redeemVerify",
      "outputs": [],
      "payable": false,
      "stateMutability": "nonpayable",
      "type": "function"
    },
    {
      "constant": false,
      "inputs": [
        {
          "internalType": "address",
          "name": "cToken",
          "type": "address"
        },
        {
          "internalType": "address",
          "name": "payer",
          "type": "address"
        },
        {
          "internalType": "address",
          "name": "borrower",
          "type": "address"
        },
        {
          "internalType": "uint256",
          "name": "repayAmount",
          "type": "uint256"
        }
      ],
      "name": "repayBorrowAllowed",
      "outputs": [
        {
          "internalType": "uint256",
          "name": "",
          "type": "uint256"
        }
      ],
      "payable": false,
      "stateMutability": "nonpayable",
      "type": "function"
    },
    {
      "constant": true,
      "inputs": [],
      "name": "safetyGuardian",
      "outputs": [
        {
          "internalType": "address",
          "name": "",
          "type": "address"
        }
      ],
      "payable": false,
      "stateMutability": "view",
      "type": "function"
    },
    {
      "constant": false,
      "inputs": [
        {
          "internalType": "address",
          "name": "cTokenCollateral",
          "type": "address"
        },
        {
          "internalType": "address",
          "name": "cTokenBorrowed",
          "type": "address"
        },
        {
          "internalType": "address",
          "name": "liquidator",
          "type": "address"
        },
        {
          "internalType": "address",
          "name": "borrower",
          "type": "address"
        },
        {
          "internalType": "uint256",
          "name": "seizeTokens",
          "type": "uint256"
        }
      ],
      "name": "seizeAllowed",
      "outputs": [
        {
          "internalType": "uint256",
          "name": "",
          "type": "uint256"
        }
      ],
      "payable": false,
      "stateMutability": "nonpayable",
      "type": "function"
    },
    {
      "constant": true,
      "inputs": [],
      "name": "seizeGuardianPaused",
      "outputs": [
        {
          "internalType": "bool",
          "name": "",
          "type": "bool"
        }
      ],
      "payable": false,
      "stateMutability": "view",
      "type": "function"
    },
    {
      "constant": true,
      "inputs": [],
      "name": "torchesConfig",
      "outputs": [
        {
          "internalType": "contract TorchesConfig",
          "name": "",
          "type": "address"
        }
      ],
      "payable": false,
      "stateMutability": "view",
      "type": "function"
    },
    {
      "constant": false,
      "inputs": [
        {
          "internalType": "address",
          "name": "cToken",
          "type": "address"
        },
        {
          "internalType": "address",
          "name": "src",
          "type": "address"
        },
        {
          "internalType": "address",
          "name": "dst",
          "type": "address"
        },
        {
          "internalType": "uint256",
          "name": "transferTokens",
          "type": "uint256"
        }
      ],
      "name": "transferAllowed",
      "outputs": [
        {
          "internalType": "uint256",
          "name": "",
          "type": "uint256"
        }
      ],
      "payable": false,
      "stateMutability": "nonpayable",
      "type": "function"
    },
    {
      "constant": true,
      "inputs": [],
      "name": "transferGuardianPaused",
      "outputs": [
        {
          "internalType": "bool",
          "name": "",
          "type": "bool"
        }
      ],
      "payable": false,
      "stateMutability": "view",
      "type": "function"
    }
  ],
  "transactionHash": "0x59c661b8360d3117b186fb1f4d026a4c84d7d96b4544e37f2b50ec20b062ea22",
  "args": [],
  "numDeployments": 1,
  "solcInputHash": "4611695ea7dda092c6ff3fb3d147bd7b",
  "bytecode": "0x6080604052600080546001600160a01b03191633179055615bd4806100256000396000f3fe608060405234801561001057600080fd5b50600436106104115760003560e01c80638e8f294b11610220578063c488847b11610130578063dd09c4f8116100b8578063e875544611610087578063e87554461461108f578063e9af029214611097578063eabe7d91146110bd578063ede4edd0146110f3578063f851a4401461111957610411565b8063dd09c4f81461102d578063e0fbf09d14611035578063e4028eee1461105b578063e6653f3d1461108757610411565b8063d02f7351116100ff578063d02f735114610f57578063d686e9ee14610f9d578063da3d454c14610fc3578063dce1544914610ff9578063dcfbc0c71461102557610411565b8063c488847b14610ea7578063c9e3016414610edd578063ca0af04314610f03578063cc7ebdc414610f3157610411565b8063a7f0e231116101b3578063b0772d0b11610182578063b0772d0b14610d8c578063b21be7fd14610d94578063bb82aa5e14610dc2578063bdcdc25814610dca578063c299823814610e0657610411565b8063a7f0e23114610ce2578063aa90075414610d06578063abfceffc14610d0e578063ac0b0bb714610d8457610411565b806394b2294b116101ef57806394b2294b14610c805780639d1b5a0a14610c885780639d8cc5c414610c90578063a76b3fda14610cbc57610411565b80638e8f294b14610bb45780638ebf636414610c07578063903e679c14610c26578063929fe9a114610c5257610411565b80634fd42e17116103265780636d154ea5116102ae5780637e60c7a01161027d5780637e60c7a014610a255780638730657714610b4857806387f7630314610b7e5780638a0b5eef14610b865780638c57804e14610b8e57610411565b80636d154ea5146109c9578063731f0c2b146109ef578063747026c914610a155780637dc0d1d014610a1d57610411565b80635ec88c79116102f55780635ec88c79146107bd5780635f5af1aa146107e35780635fc7e71e146108095780636810dfa61461084f5780636b79c38d1461097b57610411565b80634fd42e171461072157806351dff9891461073e57806352d84d1e1461077a57806355ee1fe11461079757610411565b80632af2914b116103a95780633c94786f116103785780633c94786f1461067957806342cbb15c146106815780634ada90af146106895780634e79238f146106915780634ef4c3e1146106eb57610411565b80632af2914b146105d95780632d70db781461060f578063317b0b771461062e5780633bcf7ec11461064b57610411565b80631d7b33d7116103e55780631d7b33d71461053957806324008a621461057157806324a3d622146105ad57806326782247146105d157610411565b80627e3dd21461041657806318c882a5146104325780631c3db2e0146104605780631d504dc614610513575b600080fd5b61041e611121565b604080519115158252519081900360200190f35b61041e6004803603604081101561044857600080fd5b506001600160a01b0381351690602001351515611126565b6105116004803603604081101561047657600080fd5b6001600160a01b038235169190810190604081016020820135600160201b8111156104a057600080fd5b8201836020820111156104b257600080fd5b803590602001918460208302840111600160201b831117156104d357600080fd5b919080806020026020016040519081016040528093929190818152602001838360200280828437600092019190915250929550611260945050505050565b005b6105116004803603602081101561052957600080fd5b50356001600160a01b03166112c2565b61055f6004803603602081101561054f57600080fd5b50356001600160a01b0316611416565b60408051918252519081900360200190f35b61055f6004803603608081101561058757600080fd5b506001600160a01b03813581169160208101358216916040820135169060600135611428565b6105b561151e565b604080516001600160a01b039092168252519081900360200190f35b6105b561152d565b61055f600480360360608110156105ef57600080fd5b506001600160a01b0381358116916020810135909116906040013561153c565b61041e6004803603602081101561062557600080fd5b50351515611744565b61055f6004803603602081101561064457600080fd5b5035611818565b61041e6004803603604081101561066157600080fd5b506001600160a01b0381351690602001351515611925565b61041e611a5a565b61055f611a6a565b61055f611a6f565b6106cd600480360360808110156106a757600080fd5b506001600160a01b03813581169160208101359091169060408101359060600135611a75565b60408051938452602084019290925282820152519081900360600190f35b61055f6004803603606081101561070157600080fd5b506001600160a01b03813581169160208101359091169060400135611aaf565b61055f6004803603602081101561073757600080fd5b5035611d66565b6105116004803603608081101561075457600080fd5b506001600160a01b03813581169160208101359091169060408101359060600135611d8e565b6105b56004803603602081101561079057600080fd5b5035611de8565b61055f600480360360208110156107ad57600080fd5b50356001600160a01b0316611e0f565b6106cd600480360360208110156107d357600080fd5b50356001600160a01b0316611e98565b61055f600480360360208110156107f957600080fd5b50356001600160a01b0316611ecd565b61055f600480360360a081101561081f57600080fd5b506001600160a01b0381358116916020810135821691604082013581169160608101359091169060800135611f53565b6105116004803603608081101561086557600080fd5b810190602081018135600160201b81111561087f57600080fd5b82018360208201111561089157600080fd5b803590602001918460208302840111600160201b831117156108b257600080fd5b9190808060200260200160405190810160405280939291908181526020018383602002808284376000920191909152509295949360208101935035915050600160201b81111561090157600080fd5b82018360208201111561091357600080fd5b803590602001918460208302840111600160201b8311171561093457600080fd5b919080806020026020016040519081016040528093929190818152602001838360200280828437600092019190915250929550505050803515159150602001351515612024565b6109a16004803603602081101561099157600080fd5b50356001600160a01b03166121c6565b604080516001600160e01b03909316835263ffffffff90911660208301528051918290030190f35b61041e600480360360208110156109df57600080fd5b50356001600160a01b03166121f0565b61041e60048036036020811015610a0557600080fd5b50356001600160a01b0316612205565b61055f61221a565b6105b5612225565b61051160048036036040811015610a3b57600080fd5b810190602081018135600160201b811115610a5557600080fd5b820183602082011115610a6757600080fd5b803590602001918460208302840111600160201b83111715610a8857600080fd5b9190808060200260200160405190810160405280939291908181526020018383602002808284376000920191909152509295949360208101935035915050600160201b811115610ad757600080fd5b820183602082011115610ae957600080fd5b803590602001918460208302840111600160201b83111715610b0a57600080fd5b919080806020026020016040519081016040528093929190818152602001838360200280828437600092019190915250929550612234945050505050565b610b6560048036036020811015610b5e57600080fd5b503561229d565b6040805192835260208301919091528051918290030190f35b61041e612330565b6105b5612340565b6109a160048036036020811015610ba457600080fd5b50356001600160a01b031661234f565b610bda60048036036020811015610bca57600080fd5b50356001600160a01b0316612379565b60408051951515865260208601949094529115158484015260608401526080830152519081900360a00190f35b61041e60048036036020811015610c1d57600080fd5b503515156123ae565b61055f60048036036040811015610c3c57600080fd5b506001600160a01b038135169060200135612481565b61041e60048036036040811015610c6857600080fd5b506001600160a01b03813581169160200135166125cd565b61055f612600565b6105b5612606565b61051160048036036040811015610ca657600080fd5b506001600160a01b03813516906020013561267c565b61055f60048036036020811015610cd257600080fd5b50356001600160a01b0316612774565b610cea6128f7565b604080516001600160e01b039092168252519081900360200190f35b61055f61290a565b610d3460048036036020811015610d2457600080fd5b50356001600160a01b0316612910565b60408051602080825283518183015283519192839290830191858101910280838360005b83811015610d70578181015183820152602001610d58565b505050509050019250505060405180910390f35b61041e612999565b610d346129a9565b61055f60048036036040811015610daa57600080fd5b506001600160a01b0381358116916020013516612a0b565b6105b5612a28565b61055f60048036036080811015610de057600080fd5b506001600160a01b03813581169160208101358216916040820135169060600135612a37565b610d3460048036036020811015610e1c57600080fd5b810190602081018135600160201b811115610e3657600080fd5b820183602082011115610e4857600080fd5b803590602001918460208302840111600160201b83111715610e6957600080fd5b919080806020026020016040519081016040528093929190818152602001838360200280828437600092019190915250929550612acb945050505050565b610b6560048036036060811015610ebd57600080fd5b506001600160a01b03813581169160208101359091169060400135612b62565b61051160048036036020811015610ef357600080fd5b50356001600160a01b0316612d96565b61055f60048036036040811015610f1957600080fd5b506001600160a01b0381358116916020013516612dcf565b61055f60048036036020811015610f4757600080fd5b50356001600160a01b0316612dec565b61055f600480360360a0811015610f6d57600080fd5b506001600160a01b0381358116916020810135821691604082013581169160608101359091169060800135612dfe565b61055f60048036036020811015610fb357600080fd5b50356001600160a01b0316612ec3565b61055f60048036036060811015610fd957600080fd5b506001600160a01b03813581169160208101359091169060400135612eee565b6105b56004803603604081101561100f57600080fd5b506001600160a01b038135169060200135613301565b6105b5613336565b6105b5613345565b61055f6004803603602081101561104b57600080fd5b50356001600160a01b031661338a565b61055f6004803603604081101561107157600080fd5b506001600160a01b03813516906020013561340d565b61041e6135a3565b61055f6135b3565b610511600480360360208110156110ad57600080fd5b50356001600160a01b03166135b9565b61055f600480360360608110156110d357600080fd5b506001600160a01b0381358116916020810135909116906040013561361d565b61055f6004803603602081101561110957600080fd5b50356001600160a01b031661363a565b6105b561394f565b600181565b6001600160a01b03821660009081526009602052604081205460ff1661117d576040805162461bcd60e51b8152602060048201526007602482015266085b1a5cdd195960ca1b604482015290519081900360640190fd5b600a546001600160a01b03163314806111a057506000546001600160a01b031633145b6111da576040805162461bcd60e51b815260206004820152600660248201526510b0b236b4b760d11b604482015290519081900360640190fd5b6001600160a01b0383166000818152600c6020908152604091829020805486151560ff199091168117909155825193845283830152606090830181905260069083015265426f72726f7760d01b6080830152517f71aec636243f9709bb0007ae15e9afb8150ab01716d75fd7573be5cc096e03b09181900360a00190a150805b92915050565b60408051600180825281830190925260609160208083019080388339019050509050828160008151811061129057fe5b60200260200101906001600160a01b031690816001600160a01b0316815250506112bd8183600180612024565b505050565b806001600160a01b031663f851a4406040518163ffffffff1660e01b815260040160206040518083038186803b1580156112fb57600080fd5b505afa15801561130f573d6000803e3d6000fd5b505050506040513d602081101561132557600080fd5b50516001600160a01b0316331461136c576040805162461bcd60e51b815260206004820152600660248201526510b0b236b4b760d11b604482015290519081900360640190fd5b806001600160a01b031663c1e803346040518163ffffffff1660e01b8152600401602060405180830381600087803b1580156113a757600080fd5b505af11580156113bb573d6000803e3d6000fd5b505050506040513d60208110156113d157600080fd5b505115611413576040805162461bcd60e51b815260206004820152600b60248201526a08585d5d1a1bdc9a5e995960aa1b604482015290519081900360640190fd5b50565b600f6020526000908152604090205481565b60155460408051632c333e2560e01b81526001600160a01b03858116600483015291516000939290921691632c333e2591602480820192602092909190829003018186803b15801561147957600080fd5b505afa15801561148d573d6000803e3d6000fd5b505050506040513d60208110156114a357600080fd5b505115806114c25750826001600160a01b0316846001600160a01b0316145b611507576040805162461bcd60e51b81526020600482015260116024820152702830bcb2b910109e903137b93937bbb2b960791b604482015290519081900360640190fd5b6115138585858561395e565b90505b949350505050565b600a546001600160a01b031681565b6001546001600160a01b031681565b6001600160a01b0383166000908152600c602052604081205460ff1615611593576040805162461bcd60e51b81526020600482015260066024820152651c185d5cd95960d21b604482015290519081900360640190fd5b60155460408051634d8c928d60e11b81526001600160a01b03868116600483015291519190921691639b19251a916024808301926020929190829003018186803b1580156115e057600080fd5b505afa1580156115f4573d6000803e3d6000fd5b505050506040513d602081101561160a57600080fd5b505161164a576040805162461bcd60e51b815260206004820152600a602482015269085dda1a5d195b1a5cdd60b21b604482015290519081900360640190fd5b6001600160a01b03841660009081526009602052604090205460ff166116745760095b905061173d565b6015546040805163e0fbf09d60e01b81526001600160a01b0387811660048301529151600093929092169163e0fbf09d91602480820192602092909190829003018186803b1580156116c557600080fd5b505afa1580156116d9573d6000803e3d6000fd5b505050506040513d60208110156116ef57600080fd5b5051905080831115611736576040805162461bcd60e51b815260206004820152600b60248201526a18d85c081c995858da195960aa1b604482015290519081900360640190fd5b60005b9150505b9392505050565b600a546000906001600160a01b031633148061176a57506000546001600160a01b031633145b6117a4576040805162461bcd60e51b815260206004820152600660248201526510b0b236b4b760d11b604482015290519081900360640190fd5b600a8054831515600160b81b810260ff60b81b1990921691909117909155604080516020810192909252808252600582820152645365697a6560d81b6060830152517fef159d9a32b2472e32b098f954f3ce62d232939f1c207070b584df1814de2de09181900360800190a150805b919050565b600080546001600160a01b0316331461183e5761183760016004613a19565b9050611813565b611846615ad3565b50604080516020810190915282815261185d615ad3565b50604080516020810190915266b1a2bc2ec50000815261187d8282613a7f565b156118965761188d600580613a19565b92505050611813565b61189e615ad3565b506040805160208101909152670c7d713b49da000081526118bf8184613a87565b156118d9576118cf600580613a19565b9350505050611813565b600554604080519182526020820187905280517f3b9670cf975d26958e754b57098eaa2ac914d8d2a31b83257997b9f346110fd99281900390910190a150505060059190915550600090565b6001600160a01b03821660009081526009602052604081205460ff1661197c576040805162461bcd60e51b8152602060048201526007602482015266085b1a5cdd195960ca1b604482015290519081900360640190fd5b600a546001600160a01b031633148061199f57506000546001600160a01b031633145b6119d9576040805162461bcd60e51b815260206004820152600660248201526510b0b236b4b760d11b604482015290519081900360640190fd5b6001600160a01b0383166000818152600b6020908152604091829020805486151560ff199091168117909155825193845283830152606090830181905260049083015263135a5b9d60e21b6080830152517f71aec636243f9709bb0007ae15e9afb8150ab01716d75fd7573be5cc096e03b09181900360a00190a150919050565b600a54600160a01b900460ff1681565b435b90565b60065481565b600080600080600080611a8a8a8a8a8a613a8e565b925092509250826011811115611a9c57fe5b95509093509150505b9450945094915050565b6015546040805163fbac395160e01b81526001600160a01b0385811660048301529151600093929092169163fbac395191602480820192602092909190829003018186803b158015611b0057600080fd5b505afa158015611b14573d6000803e3d6000fd5b505050506040513d6020811015611b2a57600080fd5b505115611b3657600080fd5b6001600160a01b0384166000908152600b602052604090205460ff1615611b5c57600080fd5b6001600160a01b03841660009081526009602052604090205460ff16611b8357600961166d565b601554604080516321636b8b60e21b81526001600160a01b0387811660048301529151600093929092169163858dae2c91602480820192602092909190829003018186803b158015611bd457600080fd5b505afa158015611be8573d6000803e3d6000fd5b505050506040513d6020811015611bfe57600080fd5b505190508015611d5157611c10615ad3565b6040518060200160405280876001600160a01b031663182df0f56040518163ffffffff1660e01b815260040160206040518083038186803b158015611c5457600080fd5b505afa158015611c68573d6000803e3d6000fd5b505050506040513d6020811015611c7e57600080fd5b50519052604080516318160ddd60e01b81529051919250600091611cff9184916001600160a01b038b16916318160ddd916004808301926020929190829003018186803b158015611cce57600080fd5b505afa158015611ce2573d6000803e3d6000fd5b505050506040513d6020811015611cf857600080fd5b5051613f9d565b90506000611d0d8287613fbc565b905083811115611d4d576040805162461bcd60e51b8152602060048083019190915260248201526303e6361760e41b604482015290519081900360640190fd5b5050505b611d5a85613ff2565b61173685856000614273565b600080546001600160a01b03163314611d85576118376001600b613a19565b50600655600090565b80158015611d9c5750600082115b15611de2576040805162461bcd60e51b815260206004820152601160248201527072656465656d546f6b656e73207a65726f60781b604482015290519081900360640190fd5b50505050565b600d8181548110611df557fe5b6000918252602090912001546001600160a01b0316905081565b600080546001600160a01b03163314611e2e5761183760016010613a19565b600454604080516001600160a01b039283168152918416602083015280517fd52b2b9b7e9ee655fcb95d2e5b9e0c9f69e7ef2b8e9d2d0ea78402d576d22e229281900390910190a1600480546001600160a01b0319166001600160a01b038416179055600061125a565b600080600080600080611eaf876000806000613a8e565b925092509250826011811115611ec157fe5b97919650945092505050565b600080546001600160a01b03163314611eec5761183760016013613a19565b600a80546001600160a01b038481166001600160a01b0319831617928390556040805192821680845293909116602083015280517f0613b6ee6a04f0d09f390e4d9318894b9f6ac7fd83897cd8d18896ba579c401e9281900390910190a160009392505050565b60155460408051632c333e2560e01b81526001600160a01b03858116600483015291516000939290921691632c333e2591602480820192602092909190829003018186803b158015611fa457600080fd5b505afa158015611fb8573d6000803e3d6000fd5b505050506040513d6020811015611fce57600080fd5b50511561200b576040805162461bcd60e51b815260206004820152600660248201526518dc99591a5d60d21b604482015290519081900360640190fd5b6120188686868686614473565b90505b95945050505050565b60005b83518110156121bf57600084828151811061203e57fe5b6020908102919091018101516001600160a01b0381166000908152600990925260409091205490915060ff166120a5576040805162461bcd60e51b8152602060048201526007602482015266085b1a5cdd195960ca1b604482015290519081900360640190fd5b6001841515141561216d576120b8615ad3565b6040518060200160405280836001600160a01b031663aa5af0fd6040518163ffffffff1660e01b815260040160206040518083038186803b1580156120fc57600080fd5b505afa158015612110573d6000803e3d6000fd5b505050506040513d602081101561212657600080fd5b50519052905061213682826145d6565b60005b875181101561216a576121628389838151811061215257fe5b6020026020010151846001614865565b600101612139565b50505b600183151514156121b65761218181613ff2565b60005b86518110156121b4576121ac8288838151811061219d57fe5b60200260200101516001614273565b600101612184565b505b50600101612027565b5050505050565b6010602052600090815260409020546001600160e01b03811690600160e01b900463ffffffff1682565b600c6020526000908152604090205460ff1681565b600b6020526000908152604090205460ff1681565b66038d7ea4c6800081565b6004546001600160a01b031681565b6000546001600160a01b0316331461224b57600080fd5b805182511461225957600080fd5b60005b82518110156112bd5761229583828151811061227457fe5b602002602001015183838151811061228857fe5b6020026020010151614a48565b60010161225c565b60155460065460408051630655a3bd60e11b8152600481018590526024810192909252805160009384936001600160a01b0390911692630cab477a92604480840193829003018186803b1580156122f357600080fd5b505afa158015612307573d6000803e3d6000fd5b505050506040513d604081101561231d57600080fd5b5080516020909101519092509050915091565b600a54600160b01b900460ff1681565b6015546001600160a01b031681565b6011602052600090815260409020546001600160e01b03811690600160e01b900463ffffffff1682565b6009602052600090815260409020805460018201546003830154600484015460059094015460ff938416949293909116919085565b600a546000906001600160a01b03163314806123d457506000546001600160a01b031633145b61240e576040805162461bcd60e51b815260206004820152600660248201526510b0b236b4b760d11b604482015290519081900360640190fd5b600a8054831515600160b01b810260ff60b01b1990921691909117909155604080516020810192909252808252600882820152672a3930b739b332b960c11b6060830152517fef159d9a32b2472e32b098f954f3ce62d232939f1c207070b584df1814de2de09181900360800190a15090565b600080546001600160a01b031633146124a7576124a06001600b613a19565b905061125a565b6001600160a01b0383166000908152600960205260409020805460ff166124dc576124d460096007613a19565b91505061125a565b6124e4615ad3565b5060408051602081019091528381526124fb615ad3565b506040805160208101909152670de0b6b3a7640000815261251c8282613a87565b156125375761252d6007600c613a19565b935050505061125a565b61253f615ad3565b5060408051602081019091526714d1120d7b16000081526125608184613a87565b1561257c576125716007600c613a19565b94505050505061125a565b6005840154604080519182526020820188905280517faeba5a6c40a8ac138134bff1aaa65debf25971188a58804bad717f82f0ec13169281900390910190a150505060050191909155506000919050565b6001600160a01b038082166000908152600960209081526040808320938616835260029093019052205460ff1692915050565b60075481565b60155460408051636605dfa760e01b815290516000926001600160a01b031691636605dfa7916004808301926020929190829003018186803b15801561264b57600080fd5b505afa15801561265f573d6000803e3d6000fd5b505050506040513d602081101561267557600080fd5b5051905090565b6000546001600160a01b031633146126c4576040805162461bcd60e51b815260206004820152600660248201526510b0b236b4b760d11b604482015290519081900360640190fd5b6000811180156126dc5750670de0b6b3a76400008111155b61271d576040805162461bcd60e51b815260206004820152600d60248201526c10b137b93937bba330b1ba37b960991b604482015290519081900360640190fd5b6001600160a01b038216600081815260096020908152604091829020600401849055815184815291517f06ba34ca74586d7d83f17a9e4054760897dda97278c46bd8bdf829f72afb66609281900390910190a25050565b600080546001600160a01b031633146127935761183760016012613a19565b6001600160a01b03821660009081526009602052604090205460ff16156127c057611837600a6011613a19565b816001600160a01b031663fe9c44ae6040518163ffffffff1660e01b815260040160206040518083038186803b1580156127f957600080fd5b505afa15801561280d573d6000803e3d6000fd5b505050506040513d602081101561282357600080fd5b50506040805160a081018252600180825260006020838101828152848601838152670de0b6b3a764000060608701908152608087018581526001600160a01b038b1686526009909452969093209451855490151560ff19918216178655905193850193909355905160038401805491151591909316179091559151600482015590516005909101556128b482614b6a565b604080516001600160a01b038416815290517fcf583bb0c569eb967f806b11601c4cb93c10310485c67add5f8362c2f212321f9181900360200190a1600061125a565b6ec097ce7bc90715b34b9f100000000081565b600e5481565b60608060086000846001600160a01b03166001600160a01b0316815260200190815260200160002080548060200260200160405190810160405280929190818152602001828054801561298c57602002820191906000526020600020905b81546001600160a01b0316815260019091019060200180831161296e575b5093979650505050505050565b600a54600160b81b900460ff1681565b6060600d805480602002602001604051908101604052809291908181526020018280548015612a0157602002820191906000526020600020905b81546001600160a01b031681526001909101906020018083116129e3575b5050505050905090565b601260209081526000928352604080842090915290825290205481565b6002546001600160a01b031681565b600a54600090600160b01b900460ff1615612a82576040805162461bcd60e51b81526020600482015260066024820152651c185d5cd95960d21b604482015290519081900360640190fd5b6000612a8f868685614c48565b90508015612a9e579050611516565b612aa786613ff2565b612ab386866000614273565b612abf86856000614273565b60009695505050505050565b6060600082519050606081604051908082528060200260200182016040528015612aff578160200160208202803883390190505b50905060005b82811015612b5a576000858281518110612b1b57fe5b60200260200101519050612b2f8133614cf4565b6011811115612b3a57fe5b838381518110612b4657fe5b602090810291909101015250600101612b05565b509392505050565b600480546040805163fc57d4df60e01b81526001600160a01b038781169482019490945290516000938493849391169163fc57d4df91602480820192602092909190829003018186803b158015612bb857600080fd5b505afa158015612bcc573d6000803e3d6000fd5b505050506040513d6020811015612be257600080fd5b5051600480546040805163fc57d4df60e01b81526001600160a01b038a8116948201949094529051939450600093929091169163fc57d4df91602480820192602092909190829003018186803b158015612c3b57600080fd5b505afa158015612c4f573d6000803e3d6000fd5b505050506040513d6020811015612c6557600080fd5b50519050811580612c74575080155b15612c8957600d935060009250612d8e915050565b6000866001600160a01b031663182df0f56040518163ffffffff1660e01b815260040160206040518083038186803b158015612cc457600080fd5b505afa158015612cd8573d6000803e3d6000fd5b505050506040513d6020811015612cee57600080fd5b505190506000612cfc615ad3565b612d04615ad3565b612d0c615ad3565b6000612d178c612ec3565b9050612d3f60405180602001604052808381525060405180602001604052808b815250614dea565b9350612d67604051806020016040528089815250604051806020016040528089815250614dea565b9250612d738484614e29565b9150612d7f828c613f9d565b60009a50985050505050505050505b935093915050565b6000546001600160a01b03163314612dad57600080fd5b601580546001600160a01b0319166001600160a01b0392909216919091179055565b601360209081526000928352604080842090915290825290205481565b60146020526000908152604090205481565b60155460408051632c333e2560e01b81526001600160a01b03858116600483015291516000939290921691632c333e2591602480820192602092909190829003018186803b158015612e4f57600080fd5b505afa158015612e63573d6000803e3d6000fd5b505050506040513d6020811015612e7957600080fd5b505115612eb6576040805162461bcd60e51b815260206004820152600660248201526518dc99591a5d60d21b604482015290519081900360640190fd5b6120188686868686614e65565b6001600160a01b0381166000908152600960205260408120600501548061125a575050600654611813565b6001600160a01b0383166000908152600c602052604081205460ff1615612f45576040805162461bcd60e51b81526020600482015260066024820152651c185d5cd95960d21b604482015290519081900360640190fd5b6001600160a01b03841660009081526009602052604090205460ff16612f6c57600961166d565b6001600160a01b038085166000908152600960209081526040808320938716835260029093019052205460ff1661304e57336001600160a01b03851614612fe4576040805162461bcd60e51b815260206004820152600760248201526610b1aa37b5b2b760c91b604482015290519081900360640190fd5b6000612ff03385614cf4565b9050600081601181111561300057fe5b146130195780601181111561301157fe5b91505061173d565b6001600160a01b038086166000908152600960209081526040808320938816835260029093019052205460ff1661304c57fe5b505b600480546040805163fc57d4df60e01b81526001600160a01b03888116948201949094529051929091169163fc57d4df91602480820192602092909190829003018186803b15801561309f57600080fd5b505afa1580156130b3573d6000803e3d6000fd5b505050506040513d60208110156130c957600080fd5b50516130d657600d61166d565b60155460408051630f5a372160e21b81526001600160a01b03878116600483015291516000939290921691633d68dc8491602480820192602092909190829003018186803b15801561312757600080fd5b505afa15801561313b573d6000803e3d6000fd5b505050506040513d602081101561315157600080fd5b505190508015613212576000856001600160a01b03166347bd37186040518163ffffffff1660e01b815260040160206040518083038186803b15801561319657600080fd5b505afa1580156131aa573d6000803e3d6000fd5b505050506040513d60208110156131c057600080fd5b5051905060006131d08286613fbc565b905082811061320f576040805162461bcd60e51b815260206004808301919091526024820152630216361760e41b604482015290519081900360640190fd5b50505b6000806132228688600088613a8e565b9193509091506000905082601181111561323857fe5b146132535781601181111561324957fe5b935050505061173d565b8015613260576004613249565b613268615ad3565b6040518060200160405280896001600160a01b031663aa5af0fd6040518163ffffffff1660e01b815260040160206040518083038186803b1580156132ac57600080fd5b505afa1580156132c0573d6000803e3d6000fd5b505050506040513d60208110156132d657600080fd5b5051905290506132e688826145d6565b6132f38888836000614865565b600098975050505050505050565b6008602052816000526040600020818154811061331a57fe5b6000918252602090912001546001600160a01b03169150829050565b6003546001600160a01b031681565b60155460408051631ba1389f60e31b815290516000926001600160a01b03169163dd09c4f8916004808301926020929190829003018186803b15801561264b57600080fd5b6015546040805163e0fbf09d60e01b81526001600160a01b0384811660048301529151600093929092169163e0fbf09d91602480820192602092909190829003018186803b1580156133db57600080fd5b505afa1580156133ef573d6000803e3d6000fd5b505050506040513d602081101561340557600080fd5b505192915050565b600080546001600160a01b0316331461342c576124a060016006613a19565b6001600160a01b0383166000908152600960205260409020805460ff16613459576124d460096007613a19565b613461615ad3565b506040805160208101909152838152613478615ad3565b506040805160208101909152670c7d713b49da000081526134998183613a87565b156134aa5761252d60066008613a19565b84158015906135335750600480546040805163fc57d4df60e01b81526001600160a01b038a8116948201949094529051929091169163fc57d4df91602480820192602092909190829003018186803b15801561350557600080fd5b505afa158015613519573d6000803e3d6000fd5b505050506040513d602081101561352f57600080fd5b5051155b156135445761252d600d6009613a19565b6001830154604080516001600160a01b03891681526020810192909252818101879052517f70483e6592cd5182d45ac970e05bc62cdcc90e9d8ef2c2dbe686cf383bcd7fc59181900360600190a1505060010191909155506000919050565b600a54600160a81b900460ff1681565b60055481565b61141381600d80548060200260200160405190810160405280929190818152602001828054801561361357602002820191906000526020600020905b81546001600160a01b031681526001909101906020018083116135f5575b5050505050611260565b60008061362b858585614c48565b90508015611d5157905061173d565b6000808290506000806000836001600160a01b031663c37f68e2336040518263ffffffff1660e01b815260040180826001600160a01b03166001600160a01b0316815260200191505060806040518083038186803b15801561369b57600080fd5b505afa1580156136af573d6000803e3d6000fd5b505050506040513d60808110156136c557600080fd5b50805160208201516040909201519094509092509050821561371a576040805162461bcd60e51b8152602060048201526009602482015268085cdb985c1cda1bdd60ba1b604482015290519081900360640190fd5b80156137375761372c600c6002613a19565b945050505050611813565b6000613744873385614c48565b9050801561376557613759600e60038361500f565b95505050505050611813565b6001600160a01b0385166000908152600960209081526040808320338452600281019092529091205460ff166137a45760009650505050505050611813565b3360009081526002820160209081526040808320805460ff19169055600882529182902080548351818402810184019094528084526060939283018282801561381657602002820191906000526020600020905b81546001600160a01b031681526001909101906020018083116137f8575b5050835193945083925060009150505b8281101561386b57896001600160a01b031684828151811061384457fe5b60200260200101516001600160a01b031614156138635780915061386b565b600101613826565b5081811061387557fe5b33600090815260086020526040902080548190600019810190811061389657fe5b9060005260206000200160009054906101000a90046001600160a01b03168183815481106138c057fe5b600091825260209091200180546001600160a01b0319166001600160a01b039290921691909117905580546138f9826000198301615ae6565b50604080516001600160a01b038c16815233602082015281517fe699a64c18b07ac5b7301aa273f36a2287239eb9501d81950672794afba29a0d929181900390910190a160009c9b505050505050505050505050565b6000546001600160a01b031681565b6001600160a01b03841660009081526009602052604081205460ff1661398657506009611516565b61398e615ad3565b6040518060200160405280876001600160a01b031663aa5af0fd6040518163ffffffff1660e01b815260040160206040518083038186803b1580156139d257600080fd5b505afa1580156139e6573d6000803e3d6000fd5b505050506040513d60208110156139fc57600080fd5b505190529050613a0c86826145d6565b612abf8685836000614865565b60007f45b96fe442630264581b197e84bbada861235052c5a1aadfff9ea4e40a969aa0836011811115613a4857fe5b836013811115613a5457fe5b604080519283526020830191909152600082820152519081900360600190a182601181111561173d57fe5b519051111590565b5190511090565b60155460408051632c333e2560e01b81526001600160a01b038781166004830152915160009384938493600019939190921691632c333e25916024808301926020929190829003018186803b158015613ae657600080fd5b505afa158015613afa573d6000803e3d6000fd5b505050506040513d6020811015613b1057600080fd5b50511415613b28575060009150600019905081611aa5565b613b30615b0a565b6001600160a01b03881660009081526008602090815260408083208054825181850281018501909352808352606093830182828015613b9857602002820191906000526020600020905b81546001600160a01b03168152600190910190602001808311613b7a575b50939450600093505050505b8151811015613e5f576000828281518110613bbb57fe5b60200260200101519050806001600160a01b031663c37f68e28d6040518263ffffffff1660e01b815260040180826001600160a01b03166001600160a01b0316815260200191505060806040518083038186803b158015613c1b57600080fd5b505afa158015613c2f573d6000803e3d6000fd5b505050506040513d6080811015613c4557600080fd5b508051602082015160408084015160609485015160808b0152938901939093529187019190915293508315613c8a5750600f965060009550859450611aa59350505050565b60408051602080820183526001600160a01b03808516600081815260098085528682206001810154875260c08d01969096528651808601885291839052845260049485015481526101408b01528451808401865260808b0151815260e08b01528354855163fc57d4df60e01b815294850191909152935193169263fc57d4df926024808201939291829003018186803b158015613d2657600080fd5b505afa158015613d3a573d6000803e3d6000fd5b505050506040513d6020811015613d5057600080fd5b505160a08601819052613d735750600d965060009550859450611aa59350505050565b604080516020810190915260a0860151815261010086015260c085015160e0860151613dad91613da291614dea565b866101000151614dea565b610120860181905260408601518651613dc7929190615075565b85526060850151610140860151600091613de09161509d565b9050613df6866101000151828860200151615075565b60208701526001600160a01b03828116908d161415613e5557613e238661012001518c8860200151615075565b6020870152610140860151613e39908b9061509d565b9050613e4f866101000151828860200151615075565b60208701525b5050600101613ba4565b5060155460408051632c333e2560e01b81526001600160a01b038d8116600483015291516000939290921691632c333e2591602480820192602092909190829003018186803b158015613eb157600080fd5b505afa158015613ec5573d6000803e3d6000fd5b505050506040513d6020811015613edb57600080fd5b50511115613f5f5760155460408051632c333e2560e01b81526001600160a01b038d8116600483015291519190921691632c333e25916024808301926020929190829003018186803b158015613f3057600080fd5b505afa158015613f44573d6000803e3d6000fd5b505050506040513d6020811015613f5a57600080fd5b505183525b602083015183511115613f845750506020810151905160009450039150829050611aa5565b5050805160209091015160009450849350039050611aa5565b6000613fa7615ad3565b613fb184846150bb565b9050611516816150dc565b600061173d8383604051806040016040528060118152602001706164646974696f6e206f766572666c6f7760781b8152506150eb565b6001600160a01b0381166000908152601060209081526040808320600f9092528220549091608082901c90614025611a6a565b8454909150600090614045908390600160e01b900463ffffffff16615186565b90506000811180156140575750600083115b15614204576000866001600160a01b03166318160ddd6040518163ffffffff1660e01b815260040160206040518083038186803b15801561409757600080fd5b505afa1580156140ab573d6000803e3d6000fd5b505050506040513d60208110156140c157600080fd5b5051905060006140d183866151c0565b90506140db615ad3565b600083116140f85760405180602001604052806000815250614102565b6141028284615202565b905061410c615ad3565b604080516020810190915289546001600160e01b0316815261412e9083615237565b905060405180604001604052806141698360000151604051806040016040528060088152602001673e3232346269747360c01b81525061525c565b6001600160e01b031681526020016141a088604051806040016040528060078152602001663e33326269747360c81b8152506152b9565b63ffffffff9081169091526001600160a01b038c166000908152601060209081526040909120835181549490920151909216600160e01b026001600160e01b039182166001600160e01b031990941693909317169190911790555061426b92505050565b60008111801561421d575084546001600160e01b031615155b1561426b5761424b82604051806040016040528060078152602001663e33326269747360c81b8152506152b9565b855463ffffffff91909116600160e01b026001600160e01b039091161785555b505050505050565b6001600160a01b0383166000908152601060205260409020614293615ad3565b50604080516020810190915281546001600160e01b031681526142b4615ad3565b5060408051602080820183526001600160a01b038089166000908152601283528481209189168082528284529481208054855286519590915291529190915580511580156143025750815115155b1561431a576ec097ce7bc90715b34b9f100000000081525b614322615ad3565b61432c838361530e565b90506000876001600160a01b03166370a08231886040518263ffffffff1660e01b815260040180826001600160a01b03166001600160a01b0316815260200191505060206040518083038186803b15801561438657600080fd5b505afa15801561439a573d6000803e3d6000fd5b505050506040513d60208110156143b057600080fd5b5051905060006143c08284615333565b6001600160a01b038916600090815260146020526040812054919250906143e79083613fbc565b905061440889828a6144005766038d7ea4c68000614403565b60005b615362565b6001600160a01b03808b1660008181526014602090815260409182902094909455895181518781529485015280519193928e16927f2caecd17d02f56fa897705dcc740da2d237c373f70686f4e0d9bd3bf0400ea7a929081900390910190a350505050505050505050565b6001600160a01b03851660009081526009602052604081205460ff1615806144b457506001600160a01b03851660009081526009602052604090205460ff16155b156144c35760095b905061201b565b6000806144cf8561565b565b919350909150600090508260118111156144e557fe5b146144ff578160118111156144f657fe5b9250505061201b565b8061450b5760036144f6565b6000886001600160a01b03166395dd9193876040518263ffffffff1660e01b815260040180826001600160a01b03166001600160a01b0316815260200191505060206040518083038186803b15801561456357600080fd5b505afa158015614577573d6000803e3d6000fd5b505050506040513d602081101561458d57600080fd5b5051604080516020810190915260055481529091506000906145af9083613f9d565b9050808611156145c657601194505050505061201b565b60009a9950505050505050505050565b6001600160a01b0382166000908152601160209081526040808320600f90925282205490916001600160801b039091169061460f611a6a565b835490915060009061462f908390600160e01b900463ffffffff16615186565b90506000811180156146415750600083115b156147f75760006146b6876001600160a01b03166347bd37186040518163ffffffff1660e01b815260040160206040518083038186803b15801561468457600080fd5b505afa158015614698573d6000803e3d6000fd5b505050506040513d60208110156146ae57600080fd5b50518761509d565b905060006146c483866151c0565b90506146ce615ad3565b600083116146eb57604051806020016040528060008152506146f5565b6146f58284615202565b90506146ff615ad3565b604080516020810190915288546001600160e01b031681526147219083615237565b9050604051806040016040528061475c8360000151604051806040016040528060088152602001673e3232346269747360c01b81525061525c565b6001600160e01b0316815260200161479388604051806040016040528060078152602001663e33326269747360c81b8152506152b9565b63ffffffff9081169091526001600160a01b038c166000908152601160209081526040909120835181549490920151909216600160e01b026001600160e01b039182166001600160e01b031990941693909317169190911790555061426b92505050565b600081118015614810575083546001600160e01b031615155b1561426b5761483e82604051806040016040528060078152602001663e33326269747360c81b8152506152b9565b845463ffffffff91909116600160e01b026001600160e01b03909116178455505050505050565b6001600160a01b0384166000908152601160205260409020614885615ad3565b50604080516020810190915281546001600160e01b031681526148a6615ad3565b5060408051602080820183526001600160a01b03808a16600090815260138352848120918a1680825282845294812080548552865195909152915291909155805115614a3f576148f4615ad3565b6148fe838361530e565b9050600061498d896001600160a01b03166395dd91938a6040518263ffffffff1660e01b815260040180826001600160a01b03166001600160a01b0316815260200191505060206040518083038186803b15801561495b57600080fd5b505afa15801561496f573d6000803e3d6000fd5b505050506040513d602081101561498557600080fd5b50518861509d565b9050600061499b8284615333565b6001600160a01b038a16600090815260146020526040812054919250906149c29083613fbc565b90506149db8a828a6144005766038d7ea4c68000614403565b6001600160a01b03808c1660008181526014602090815260409182902094909455895181518781529485015280519193928f16927f1fc3ecc087d8d2d15e23d0032af5a47059c3892d003d8e139fdcb6bb327c99a6929081900390910190a3505050505b50505050505050565b6001600160a01b0382166000908152600960205260409020600381015460ff16614a7557614a758361567b565b6001600160a01b0383166000908152600f6020526040902054608081811c906001600160801b038084169186901c908616818414614ab657614ab688613ff2565b808314614b4557614ac5615ad3565b60405180602001604052808a6001600160a01b031663aa5af0fd6040518163ffffffff1660e01b815260040160206040518083038186803b158015614b0957600080fd5b505afa158015614b1d573d6000803e3d6000fd5b505050506040513d6020811015614b3357600080fd5b505190529050614b4389826145d6565b505b5050506001600160a01b039094166000908152600f6020526040902092909255505050565b60005b600d54811015614bf557816001600160a01b0316600d8281548110614b8e57fe5b6000918252602090912001546001600160a01b03161415614bed576040805162461bcd60e51b81526020600482015260146024820152731b585c9ad95d08185b1c9958591e48185919195960621b604482015290519081900360640190fd5b600101614b6d565b50600d80546001810182556000919091527fd7b6990105719101dabeb77144f2a3385c8033acd3af97e9423a695e81ad1eb50180546001600160a01b0319166001600160a01b0392909216919091179055565b6001600160a01b03831660009081526009602052604081205460ff16614c6f57600961166d565b6001600160a01b038085166000908152600960209081526040808320938716835260029093019052205460ff16614ca757600061166d565b600080614cb78587866000613a8e565b91935090915060009050826011811115614ccd57fe5b14614ce757816011811115614cde57fe5b9250505061173d565b8015612abf576004614cde565b6001600160a01b0382166000908152600960205260408120805460ff16614d1f57600991505061125a565b6001600160a01b038316600090815260028201602052604090205460ff16151560011415614d5157600091505061125a565b6001600160a01b0380841660008181526002840160209081526040808320805460ff19166001908117909155600883528184208054918201815584529282902090920180549489166001600160a01b031990951685179055815193845283019190915280517f3ab23ab0d51cccc0c3085aec51f99228625aa1a922b3a8ca89a26b0f2027a1a59281900390910190a15060009392505050565b614df2615ad3565b6040518060200160405280670de0b6b3a7640000614e18866000015186600001516151c0565b81614e1f57fe5b0490529392505050565b614e31615ad3565b6040518060200160405280614e5c614e558660000151670de0b6b3a76400006151c0565b855161596e565b90529392505050565b600a54600090600160b81b900460ff1615614eb0576040805162461bcd60e51b81526020600482015260066024820152651c185d5cd95960d21b604482015290519081900360640190fd5b6001600160a01b03861660009081526009602052604090205460ff161580614ef157506001600160a01b03851660009081526009602052604090205460ff16155b15614efd5760096144bc565b846001600160a01b0316635fe3b5676040518163ffffffff1660e01b815260040160206040518083038186803b158015614f3657600080fd5b505afa158015614f4a573d6000803e3d6000fd5b505050506040513d6020811015614f6057600080fd5b505160408051635fe3b56760e01b815290516001600160a01b0392831692891691635fe3b567916004808301926020929190829003018186803b158015614fa657600080fd5b505afa158015614fba573d6000803e3d6000fd5b505050506040513d6020811015614fd057600080fd5b50516001600160a01b031614614fe75760026144bc565b614ff086613ff2565b614ffc86846000614273565b61500886856000614273565b6000612018565b60007f45b96fe442630264581b197e84bbada861235052c5a1aadfff9ea4e40a969aa084601181111561503e57fe5b84601381111561504a57fe5b604080519283526020830191909152818101859052519081900360600190a183601181111561151657fe5b600061507f615ad3565b61508985856150bb565b9050611739615097826150dc565b84613fbc565b600061173d6150b484670de0b6b3a76400006151c0565b835161596e565b6150c3615ad3565b6040518060200160405280614e5c8560000151856151c0565b51670de0b6b3a7640000900490565b6000838301828582101561517d5760405162461bcd60e51b81526004018080602001828103825283818151815260200191508051906020019080838360005b8381101561514257818101518382015260200161512a565b50505050905090810190601f16801561516f5780820380516001836020036101000a031916815260200191505b509250505060405180910390fd5b50949350505050565b600061173d8383604051806040016040528060158152602001747375627472616374696f6e20756e646572666c6f7760581b8152506159a1565b600061173d83836040518060400160405280601781526020017f6d756c7469706c69636174696f6e206f766572666c6f770000000000000000008152506159fb565b61520a615ad3565b6040518060200160405280614e5c615231866ec097ce7bc90715b34b9f10000000006151c0565b8561596e565b61523f615ad3565b6040518060200160405280614e5c85600001518560000151613fbc565b600081600160e01b84106152b15760405162461bcd60e51b815260206004820181815283516024840152835190928392604490910191908501908083836000831561514257818101518382015260200161512a565b509192915050565b600081600160201b84106152b15760405162461bcd60e51b815260206004820181815283516024840152835190928392604490910191908501908083836000831561514257818101518382015260200161512a565b615316615ad3565b6040518060200160405280614e5c85600001518560000151615186565b60006ec097ce7bc90715b34b9f10000000006153538484600001516151c0565b8161535a57fe5b049392505050565b60008061536d612606565b905082841015801561537f5750600084115b801561539357506001600160a01b03811615155b1561565257604080516370a0823160e01b8152306004820152905182916000916001600160a01b038416916370a08231916024808301926020929190829003018186803b1580156153e357600080fd5b505afa1580156153f7573d6000803e3d6000fd5b505050506040513d602081101561540d57600080fd5b5051905080861161564f57601554604080516392b8de3960e01b81526001600160a01b038a81166004830152602482018a9052825160009485949216926392b8de39926044808301939192829003018186803b15801561546c57600080fd5b505afa158015615480573d6000803e3d6000fd5b505050506040513d604081101561549657600080fd5b5080516020909101519092509050811561553757836001600160a01b031663a9059cbb8a846040518363ffffffff1660e01b815260040180836001600160a01b03166001600160a01b0316815260200182815260200192505050602060405180830381600087803b15801561550a57600080fd5b505af115801561551e573d6000803e3d6000fd5b505050506040513d602081101561553457600080fd5b50505b801561564157836001600160a01b031663a9059cbb601560009054906101000a90046001600160a01b03166001600160a01b031663ee9e81996040518163ffffffff1660e01b815260040160206040518083038186803b15801561559a57600080fd5b505afa1580156155ae573d6000803e3d6000fd5b505050506040513d60208110156155c457600080fd5b5051604080516001600160e01b031960e085901b1681526001600160a01b039092166004830152602482018590525160448083019260209291908290030181600087803b15801561561457600080fd5b505af1158015615628573d6000803e3d6000fd5b505050506040513d602081101561563e57600080fd5b50505b60009550505050505061173d565b50505b50919392505050565b600080600061566e846000806000613a8e565b9250925092509193909250565b6001600160a01b0381166000908152600960205260409020805460ff1615156001146156d8576040805162461bcd60e51b8152602060048201526007602482015266085b1a5cdd195960ca1b604482015290519081900360640190fd5b600381015460ff1615615722576040805162461bcd60e51b815260206004820152600d60248201526c185b1c9958591e481859191959609a1b604482015290519081900360640190fd5b60038101805460ff19166001908117909155604080516001600160a01b0385168152602081019290925280517f93c1f3e36ed71139f466a4ce8c9751790e2e33f5afb2df0dcfb3aeabe55d5aa29281900390910190a16001600160a01b0382166000908152601060205260409020546001600160e01b03161580156157ca57506001600160a01b038216600090815260106020526040902054600160e01b900463ffffffff16155b156158845760405180604001604052806ec097ce7bc90715b34b9f10000000006001600160e01b03168152602001615829615803611a6a565b604051806040016040528060088152602001673e3332206269747360c01b8152506152b9565b63ffffffff9081169091526001600160a01b0384166000908152601060209081526040909120835181549490920151909216600160e01b026001600160e01b039182166001600160e01b031990941693909317169190911790555b6001600160a01b0382166000908152601160205260409020546001600160e01b03161580156158d657506001600160a01b038216600090815260116020526040902054600160e01b900463ffffffff16155b1561596a5760405180604001604052806ec097ce7bc90715b34b9f10000000006001600160e01b0316815260200161590f615803611a6a565b63ffffffff9081169091526001600160a01b0384166000908152601160209081526040909120835181549490920151909216600160e01b026001600160e01b039182166001600160e01b031990941693909317169190911790555b5050565b600061173d83836040518060400160405280600e81526020016d646976696465206279207a65726f60901b815250615a71565b600081848411156159f35760405162461bcd60e51b815260206004820181815283516024840152835190928392604490910191908501908083836000831561514257818101518382015260200161512a565b505050900390565b6000831580615a08575082155b15615a155750600061173d565b83830283858281615a2257fe5b0414839061517d5760405162461bcd60e51b815260206004820181815283516024840152835190928392604490910191908501908083836000831561514257818101518382015260200161512a565b60008183615ac05760405162461bcd60e51b815260206004820181815283516024840152835190928392604490910191908501908083836000831561514257818101518382015260200161512a565b50828481615aca57fe5b04949350505050565b6040518060200160405280600081525090565b8154818355818111156112bd576000838152602090206112bd918101908301615b81565b604051806101600160405280600081526020016000815260200160008152602001600081526020016000815260200160008152602001615b48615ad3565b8152602001615b55615ad3565b8152602001615b62615ad3565b8152602001615b6f615ad3565b8152602001615b7c615ad3565b905290565b611a6c91905b80821115615b9b5760008155600101615b87565b509056fea265627a7a7231582034d68a109eed133d7577799b6fae08c978bcdb4c29ab8ef8fbccd08819c304ff64736f6c63430005110032",
  "devdoc": {
    "methods": {
      "_setBorrowFactor(address,uint256)": {
        "details": "Admin function to set the borrow factors.",
        "params": {
          "cToken": "The addresses of the markets (tokens) to change the borrow factors for",
          "newBorrowFactor": "The new borrow factor values in underlying to be set. Must be between (0, 1]"
        }
      },
      "_setCloseFactor(uint256)": {
        "details": "Admin function to set closeFactor",
        "params": {
          "newCloseFactorMantissa": "New close factor, scaled by 1e18"
        },
        "return": "uint 0=success, otherwise a failure. (See ErrorReporter for details)"
      },
      "_setCollateralFactor(address,uint256)": {
        "details": "Admin function to set per-market collateralFactor",
        "params": {
          "cToken": "The market to set the factor on",
          "newCollateralFactorMantissa": "The new collateral factor, scaled by 1e18"
        },
        "return": "uint 0=success, otherwise a failure. (See ErrorReporter for details)"
      },
      "_setCompSpeeds(address[],uint256[])": {
        "details": "Admin function to set new token distribution speed"
      },
      "_setLiquidationIncentive(uint256)": {
        "details": "Admin function to set liquidationIncentive",
        "params": {
          "newLiquidationIncentiveMantissa": "New liquidationIncentive scaled by 1e18"
        },
        "return": "uint 0=success, otherwise a failure. (See ErrorReporter for details)"
      },
      "_setPauseGuardian(address)": {
        "params": {
          "newPauseGuardian": "The address of the new Pause Guardian"
        },
        "return": "uint 0=success, otherwise a failure. (See enum Error for details)"
      },
      "_setPriceOracle(address)": {
        "details": "Admin function to set a new price oracle",
        "return": "uint 0=success, otherwise a failure (see ErrorReporter.sol for details)"
      },
      "borrowAllowed(address,address,uint256)": {
        "params": {
          "borrowAmount": "The amount of underlying the account would borrow",
          "borrower": "The account which would borrow the asset",
          "cToken": "The market to verify the borrow against"
        },
        "return": "0 if the borrow is allowed, otherwise a semi-opaque error code (See ErrorReporter.sol)"
      },
      "checkMembership(address,address)": {
        "params": {
          "account": "The address of the account to check",
          "cToken": "The cToken to check"
        },
        "return": "True if the account is in the asset, otherwise false."
      },
      "claimComp(address)": {
        "params": {
          "holder": "The address to claim COMP for"
        }
      },
      "claimComp(address,address[])": {
        "params": {
          "cTokens": "The list of markets to claim COMP in",
          "holder": "The address to claim COMP for"
        }
      },
      "claimComp(address[],address[],bool,bool)": {
        "params": {
          "borrowers": "Whether or not to claim COMP earned by borrowing",
          "cTokens": "The list of markets to claim COMP in",
          "holders": "The addresses to claim COMP for",
          "suppliers": "Whether or not to claim COMP earned by supplying"
        }
      },
      "enterMarkets(address[])": {
        "params": {
          "cTokens": "The list of addresses of the cToken markets to be enabled"
        },
        "return": "Success indicator for whether each corresponding market was entered"
      },
      "exitMarket(address)": {
        "details": "Sender must not have an outstanding borrow balance in the asset, or be providing necessary collateral for an outstanding borrow.",
        "params": {
          "cTokenAddress": "The address of the asset to be removed"
        },
        "return": "Whether or not the account successfully exited the market"
      },
      "getAccountLiquidity(address)": {
        "return": "(possible error code (semi-opaque), account liquidity in excess of collateral requirements,         account shortfall below collateral requirements)"
      },
      "getAllMarkets()": {
        "details": "The automatic getter may be used to access an individual market.",
        "return": "The list of market addresses"
      },
      "getAssetsIn(address)": {
        "params": {
          "account": "The address of the account to pull assets for"
        },
        "return": "A dynamic list with the assets the account has entered"
      },
      "getHypotheticalAccountLiquidity(address,address,uint256,uint256)": {
        "params": {
          "account": "The account to determine liquidity for",
          "borrowAmount": "The amount of underlying to hypothetically borrow",
          "cTokenModify": "The market to hypothetically redeem/borrow in",
          "redeemTokens": "The number of tokens to hypothetically redeem"
        },
        "return": "(possible error code (semi-opaque), hypothetical account liquidity in excess of collateral requirements,         hypothetical account shortfall below collateral requirements)"
      },
      "liquidateBorrowAllowed(address,address,address,address,uint256)": {
        "params": {
          "borrower": "The address of the borrower",
          "cTokenBorrowed": "Asset which was borrowed by the borrower",
          "cTokenCollateral": "Asset which was used as collateral and will be seized",
          "liquidator": "The address repaying the borrow and seizing the collateral",
          "repayAmount": "The amount of underlying being repaid"
        }
      },
      "liquidateCalculateSeizeTokens(address,address,uint256)": {
        "details": "Used in liquidation (called in cToken.liquidateBorrowFresh)",
        "params": {
          "actualRepayAmount": "The amount of cTokenBorrowed underlying to convert into cTokenCollateral tokens",
          "cTokenBorrowed": "The address of the borrowed cToken",
          "cTokenCollateral": "The address of the collateral cToken"
        },
        "return": "(errorCode, number of cTokenCollateral tokens to be seized in a liquidation)"
      },
      "mintAllowed(address,address,uint256)": {
        "params": {
          "cToken": "The market to verify the mint against",
          "mintAmount": "The amount of underlying being supplied to the market in exchange for tokens",
          "minter": "The account which would get the minted tokens"
        },
        "return": "0 if the mint is allowed, otherwise a semi-opaque error code (See ErrorReporter.sol)"
      },
      "redeemAllowed(address,address,uint256)": {
        "params": {
          "cToken": "The market to verify the redeem against",
          "redeemTokens": "The number of cTokens to exchange for the underlying asset in the market",
          "redeemer": "The account which would redeem the tokens"
        },
        "return": "0 if the redeem is allowed, otherwise a semi-opaque error code (See ErrorReporter.sol)"
      },
      "redeemVerify(address,address,uint256,uint256)": {
        "params": {
          "cToken": "Asset being redeemed",
          "redeemAmount": "The amount of the underlying asset being redeemed",
          "redeemTokens": "The number of tokens being redeemed",
          "redeemer": "The address redeeming the tokens"
        }
      },
      "repayBorrowAllowed(address,address,address,uint256)": {
        "params": {
          "borrower": "The account which would borrowed the asset",
          "cToken": "The market to verify the repay against",
          "payer": "The account which would repay the asset",
          "repayAmount": "The amount of the underlying asset the account would repay"
        },
        "return": "0 if the repay is allowed, otherwise a semi-opaque error code (See ErrorReporter.sol)"
      },
      "transferAllowed(address,address,address,uint256)": {
        "params": {
          "cToken": "The market to verify the transfer against",
          "dst": "The account which receives the tokens",
          "src": "The account which sources the tokens",
          "transferTokens": "The number of cTokens to transfer"
        },
        "return": "0 if the transfer is allowed, otherwise a semi-opaque error code (See ErrorReporter.sol)"
      }
    }
  },
  "userdoc": {
    "methods": {
      "_setBorrowFactor(address,uint256)": {
        "notice": "Set the given borrow factors for the given cToken markets."
      },
      "_setCloseFactor(uint256)": {
        "notice": "Sets the closeFactor used when liquidating borrows"
      },
      "_setCollateralFactor(address,uint256)": {
        "notice": "Sets the collateralFactor for a market"
      },
      "_setCompSpeeds(address[],uint256[])": {
        "notice": "Sets new governance token distribution speed"
      },
      "_setLiquidationIncentive(uint256)": {
        "notice": "Sets liquidationIncentive"
      },
      "_setPauseGuardian(address)": {
        "notice": "Admin function to change the Pause Guardian"
      },
      "_setPriceOracle(address)": {
        "notice": "Sets a new price oracle for the comptroller"
      },
      "borrowAllowed(address,address,uint256)": {
        "notice": "Checks if the account should be allowed to borrow the underlying asset of the given market"
      },
      "checkMembership(address,address)": {
        "notice": "Returns whether the given account is entered in the given asset"
      },
      "claimComp(address)": {
        "notice": "Claim all the comp accrued by holder in all markets"
      },
      "claimComp(address,address[])": {
        "notice": "Claim all the comp accrued by holder in the specified markets"
      },
      "claimComp(address[],address[],bool,bool)": {
        "notice": "Claim all comp accrued by the holders"
      },
      "enterMarkets(address[])": {
        "notice": "Add assets to be included in account liquidity calculation"
      },
      "exitMarket(address)": {
        "notice": "Removes asset from sender's account liquidity calculation"
      },
      "getAccountLiquidity(address)": {
        "notice": "Determine the current account liquidity wrt collateral requirements"
      },
      "getAllMarkets()": {
        "notice": "Return all of the markets"
      },
      "getAssetsIn(address)": {
        "notice": "Returns the assets an account has entered"
      },
      "getHypotheticalAccountLiquidity(address,address,uint256,uint256)": {
        "notice": "Determine what the account liquidity would be if the given amounts were redeemed/borrowed"
      },
      "liquidateBorrowAllowed(address,address,address,address,uint256)": {
        "notice": "Checks if the liquidation should be allowed to occur"
      },
      "liquidateCalculateSeizeTokens(address,address,uint256)": {
        "notice": "Calculate number of tokens of collateral asset to seize given an underlying amount"
      },
      "mintAllowed(address,address,uint256)": {
        "notice": "Checks if the account should be allowed to mint tokens in the given market"
      },
      "redeemAllowed(address,address,uint256)": {
        "notice": "Checks if the account should be allowed to redeem tokens in the given market"
      },
      "redeemVerify(address,address,uint256,uint256)": {
        "notice": "Validates redeem and reverts on rejection. May emit logs."
      },
      "repayBorrowAllowed(address,address,address,uint256)": {
        "notice": "Checks if the account should be allowed to repay a borrow in the given market"
      },
      "transferAllowed(address,address,address,uint256)": {
        "notice": "Checks if the account should be allowed to transfer tokens in the given market"
      }
    }
  },
  "storageLayout": {
    "storage": [
      {
        "astId": 15612,
        "contract": "contracts/Torchestroller.sol:Torchestroller",
        "label": "admin",
        "offset": 0,
        "slot": "0",
        "type": "t_address"
      },
      {
        "astId": 15614,
        "contract": "contracts/Torchestroller.sol:Torchestroller",
        "label": "pendingAdmin",
        "offset": 0,
        "slot": "1",
        "type": "t_address"
      },
      {
        "astId": 15616,
        "contract": "contracts/Torchestroller.sol:Torchestroller",
        "label": "comptrollerImplementation",
        "offset": 0,
        "slot": "2",
        "type": "t_address"
      },
      {
        "astId": 15618,
        "contract": "contracts/Torchestroller.sol:Torchestroller",
        "label": "pendingComptrollerImplementation",
        "offset": 0,
        "slot": "3",
        "type": "t_address"
      },
      {
        "astId": 15623,
        "contract": "contracts/Torchestroller.sol:Torchestroller",
        "label": "oracle",
        "offset": 0,
        "slot": "4",
        "type": "t_contract(PriceOracle)18861"
      },
      {
        "astId": 15625,
        "contract": "contracts/Torchestroller.sol:Torchestroller",
        "label": "closeFactorMantissa",
        "offset": 0,
        "slot": "5",
        "type": "t_uint256"
      },
      {
        "astId": 15627,
        "contract": "contracts/Torchestroller.sol:Torchestroller",
        "label": "liquidationIncentiveMantissa",
        "offset": 0,
        "slot": "6",
        "type": "t_uint256"
      },
      {
        "astId": 15629,
        "contract": "contracts/Torchestroller.sol:Torchestroller",
        "label": "maxAssets",
        "offset": 0,
        "slot": "7",
        "type": "t_uint256"
      },
      {
        "astId": 15634,
        "contract": "contracts/Torchestroller.sol:Torchestroller",
        "label": "accountAssets",
        "offset": 0,
        "slot": "8",
        "type": "t_mapping(t_address,t_array(t_contract(CToken)12396)dyn_storage)"
      },
      {
        "astId": 15656,
        "contract": "contracts/Torchestroller.sol:Torchestroller",
        "label": "markets",
        "offset": 0,
        "slot": "9",
        "type": "t_mapping(t_address,t_struct(Market)15652_storage)"
      },
      {
        "astId": 15658,
        "contract": "contracts/Torchestroller.sol:Torchestroller",
        "label": "pauseGuardian",
        "offset": 0,
        "slot": "10",
        "type": "t_address"
      },
      {
        "astId": 15660,
        "contract": "contracts/Torchestroller.sol:Torchestroller",
        "label": "_mintGuardianPaused",
        "offset": 20,
        "slot": "10",
        "type": "t_bool"
      },
      {
        "astId": 15662,
        "contract": "contracts/Torchestroller.sol:Torchestroller",
        "label": "_borrowGuardianPaused",
        "offset": 21,
        "slot": "10",
        "type": "t_bool"
      },
      {
        "astId": 15664,
        "contract": "contracts/Torchestroller.sol:Torchestroller",
        "label": "transferGuardianPaused",
        "offset": 22,
        "slot": "10",
        "type": "t_bool"
      },
      {
        "astId": 15666,
        "contract": "contracts/Torchestroller.sol:Torchestroller",
        "label": "seizeGuardianPaused",
        "offset": 23,
        "slot": "10",
        "type": "t_bool"
      },
      {
        "astId": 15670,
        "contract": "contracts/Torchestroller.sol:Torchestroller",
        "label": "mintGuardianPaused",
        "offset": 0,
        "slot": "11",
        "type": "t_mapping(t_address,t_bool)"
      },
      {
        "astId": 15674,
        "contract": "contracts/Torchestroller.sol:Torchestroller",
        "label": "borrowGuardianPaused",
        "offset": 0,
        "slot": "12",
        "type": "t_mapping(t_address,t_bool)"
      },
      {
        "astId": 15685,
        "contract": "contracts/Torchestroller.sol:Torchestroller",
        "label": "allMarkets",
        "offset": 0,
        "slot": "13",
        "type": "t_array(t_contract(CToken)12396)dyn_storage"
      },
      {
        "astId": 15687,
        "contract": "contracts/Torchestroller.sol:Torchestroller",
        "label": "compRate",
        "offset": 0,
        "slot": "14",
        "type": "t_uint256"
      },
      {
        "astId": 15691,
        "contract": "contracts/Torchestroller.sol:Torchestroller",
        "label": "compSpeeds",
        "offset": 0,
        "slot": "15",
        "type": "t_mapping(t_address,t_uint256)"
      },
      {
        "astId": 15695,
        "contract": "contracts/Torchestroller.sol:Torchestroller",
        "label": "compSupplyState",
        "offset": 0,
        "slot": "16",
        "type": "t_mapping(t_address,t_struct(CompMarketState)15682_storage)"
      },
      {
        "astId": 15699,
        "contract": "contracts/Torchestroller.sol:Torchestroller",
        "label": "compBorrowState",
        "offset": 0,
        "slot": "17",
        "type": "t_mapping(t_address,t_struct(CompMarketState)15682_storage)"
      },
      {
        "astId": 15705,
        "contract": "contracts/Torchestroller.sol:Torchestroller",
        "label": "compSupplierIndex",
        "offset": 0,
        "slot": "18",
        "type": "t_mapping(t_address,t_mapping(t_address,t_uint256))"
      },
      {
        "astId": 15711,
        "contract": "contracts/Torchestroller.sol:Torchestroller",
        "label": "compBorrowerIndex",
        "offset": 0,
        "slot": "19",
        "type": "t_mapping(t_address,t_mapping(t_address,t_uint256))"
      },
      {
        "astId": 15715,
        "contract": "contracts/Torchestroller.sol:Torchestroller",
        "label": "compAccrued",
        "offset": 0,
        "slot": "20",
        "type": "t_mapping(t_address,t_uint256)"
      },
      {
        "astId": 7052,
        "contract": "contracts/Torchestroller.sol:Torchestroller",
        "label": "torchesConfig",
        "offset": 0,
        "slot": "21",
        "type": "t_contract(TorchesConfig)5694"
      }
    ],
    "types": {
      "t_address": {
        "encoding": "inplace",
        "label": "address",
        "numberOfBytes": "20"
      },
      "t_array(t_contract(CToken)12396)dyn_storage": {
        "base": "t_contract(CToken)12396",
        "encoding": "dynamic_array",
        "label": "contract CToken[]",
        "numberOfBytes": "32"
      },
      "t_bool": {
        "encoding": "inplace",
        "label": "bool",
        "numberOfBytes": "1"
      },
      "t_contract(CToken)12396": {
        "encoding": "inplace",
        "label": "contract CToken",
        "numberOfBytes": "20"
      },
      "t_contract(PriceOracle)18861": {
        "encoding": "inplace",
        "label": "contract PriceOracle",
        "numberOfBytes": "20"
      },
      "t_contract(TorchesConfig)5694": {
        "encoding": "inplace",
        "label": "contract TorchesConfig",
        "numberOfBytes": "20"
      },
      "t_mapping(t_address,t_array(t_contract(CToken)12396)dyn_storage)": {
        "encoding": "mapping",
        "key": "t_address",
        "label": "mapping(address => contract CToken[])",
        "numberOfBytes": "32",
        "value": "t_array(t_contract(CToken)12396)dyn_storage"
      },
      "t_mapping(t_address,t_bool)": {
        "encoding": "mapping",
        "key": "t_address",
        "label": "mapping(address => bool)",
        "numberOfBytes": "32",
        "value": "t_bool"
      },
      "t_mapping(t_address,t_mapping(t_address,t_uint256))": {
        "encoding": "mapping",
        "key": "t_address",
        "label": "mapping(address => mapping(address => uint256))",
        "numberOfBytes": "32",
        "value": "t_mapping(t_address,t_uint256)"
      },
      "t_mapping(t_address,t_struct(CompMarketState)15682_storage)": {
        "encoding": "mapping",
        "key": "t_address",
        "label": "mapping(address => struct ComptrollerV3Storage.CompMarketState)",
        "numberOfBytes": "32",
        "value": "t_struct(CompMarketState)15682_storage"
      },
      "t_mapping(t_address,t_struct(Market)15652_storage)": {
        "encoding": "mapping",
        "key": "t_address",
        "label": "mapping(address => struct ComptrollerV2Storage.Market)",
        "numberOfBytes": "32",
        "value": "t_struct(Market)15652_storage"
      },
      "t_mapping(t_address,t_uint256)": {
        "encoding": "mapping",
        "key": "t_address",
        "label": "mapping(address => uint256)",
        "numberOfBytes": "32",
        "value": "t_uint256"
      },
      "t_struct(CompMarketState)15682_storage": {
        "encoding": "inplace",
        "label": "struct ComptrollerV3Storage.CompMarketState",
        "members": [
          {
            "astId": 15679,
            "contract": "contracts/Torchestroller.sol:Torchestroller",
            "label": "index",
            "offset": 0,
            "slot": "0",
            "type": "t_uint224"
          },
          {
            "astId": 15681,
            "contract": "contracts/Torchestroller.sol:Torchestroller",
            "label": "block",
            "offset": 28,
            "slot": "0",
            "type": "t_uint32"
          }
        ],
        "numberOfBytes": "32"
      },
      "t_struct(Market)15652_storage": {
        "encoding": "inplace",
        "label": "struct ComptrollerV2Storage.Market",
        "members": [
          {
            "astId": 15639,
            "contract": "contracts/Torchestroller.sol:Torchestroller",
            "label": "isListed",
            "offset": 0,
            "slot": "0",
            "type": "t_bool"
          },
          {
            "astId": 15641,
            "contract": "contracts/Torchestroller.sol:Torchestroller",
            "label": "collateralFactorMantissa",
            "offset": 0,
            "slot": "1",
            "type": "t_uint256"
          },
          {
            "astId": 15645,
            "contract": "contracts/Torchestroller.sol:Torchestroller",
            "label": "accountMembership",
            "offset": 0,
            "slot": "2",
            "type": "t_mapping(t_address,t_bool)"
          },
          {
            "astId": 15647,
            "contract": "contracts/Torchestroller.sol:Torchestroller",
            "label": "isComped",
            "offset": 0,
            "slot": "3",
            "type": "t_bool"
          },
          {
            "astId": 15649,
            "contract": "contracts/Torchestroller.sol:Torchestroller",
            "label": "borrowFactorMantissa",
            "offset": 0,
            "slot": "4",
            "type": "t_uint256"
          },
          {
            "astId": 15651,
            "contract": "contracts/Torchestroller.sol:Torchestroller",
            "label": "liquidationIncentiveMantissa",
            "offset": 0,
            "slot": "5",
            "type": "t_uint256"
          }
        ],
        "numberOfBytes": "192"
      },
      "t_uint224": {
        "encoding": "inplace",
        "label": "uint224",
        "numberOfBytes": "28"
      },
      "t_uint256": {
        "encoding": "inplace",
        "label": "uint256",
        "numberOfBytes": "32"
      },
      "t_uint32": {
        "encoding": "inplace",
        "label": "uint32",
        "numberOfBytes": "4"
      }
    }
  }
}