{
  "address": "0x3d5BD5D6E9F1A30552E9f8c11336c055b13Ce3CA",
  "abi": [
    {
      "inputs": [],
      "payable": false,
      "stateMutability": "nonpayable",
      "type": "constructor"
    },
    {
      "anonymous": false,
      "inputs": [
        {
          "indexed": false,
          "internalType": "uint256",
          "name": "cashPrior",
          "type": "uint256"
        },
        {
          "indexed": false,
          "internalType": "uint256",
          "name": "interestAccumulated",
          "type": "uint256"
        },
        {
          "indexed": false,
          "internalType": "uint256",
          "name": "borrowIndex",
          "type": "uint256"
        },
        {
          "indexed": false,
          "internalType": "uint256",
          "name": "totalBorrows",
          "type": "uint256"
        }
      ],
      "name": "AccrueInterest",
      "type": "event"
    },
    {
      "anonymous": false,
      "inputs": [
        {
          "indexed": true,
          "internalType": "address",
          "name": "owner",
          "type": "address"
        },
        {
          "indexed": true,
          "internalType": "address",
          "name": "spender",
          "type": "address"
        },
        {
          "indexed": false,
          "internalType": "uint256",
          "name": "amount",
          "type": "uint256"
        }
      ],
      "name": "Approval",
      "type": "event"
    },
    {
      "anonymous": false,
      "inputs": [
        {
          "indexed": false,
          "internalType": "address",
          "name": "borrower",
          "type": "address"
        },
        {
          "indexed": false,
          "internalType": "uint256",
          "name": "borrowAmount",
          "type": "uint256"
        },
        {
          "indexed": false,
          "internalType": "uint256",
          "name": "accountBorrows",
          "type": "uint256"
        },
        {
          "indexed": false,
          "internalType": "uint256",
          "name": "totalBorrows",
          "type": "uint256"
        }
      ],
      "name": "Borrow",
      "type": "event"
    },
    {
      "anonymous": false,
      "inputs": [
        {
          "indexed": false,
          "internalType": "uint256",
          "name": "error",
          "type": "uint256"
        },
        {
          "indexed": false,
          "internalType": "uint256",
          "name": "info",
          "type": "uint256"
        },
        {
          "indexed": false,
          "internalType": "uint256",
          "name": "detail",
          "type": "uint256"
        }
      ],
      "name": "Failure",
      "type": "event"
    },
    {
      "anonymous": false,
      "inputs": [
        {
          "indexed": false,
          "internalType": "address",
          "name": "liquidator",
          "type": "address"
        },
        {
          "indexed": false,
          "internalType": "address",
          "name": "borrower",
          "type": "address"
        },
        {
          "indexed": false,
          "internalType": "uint256",
          "name": "repayAmount",
          "type": "uint256"
        },
        {
          "indexed": false,
          "internalType": "address",
          "name": "cTokenCollateral",
          "type": "address"
        },
        {
          "indexed": false,
          "internalType": "uint256",
          "name": "seizeTokens",
          "type": "uint256"
        }
      ],
      "name": "LiquidateBorrow",
      "type": "event"
    },
    {
      "anonymous": false,
      "inputs": [
        {
          "indexed": false,
          "internalType": "address",
          "name": "minter",
          "type": "address"
        },
        {
          "indexed": false,
          "internalType": "uint256",
          "name": "mintAmount",
          "type": "uint256"
        },
        {
          "indexed": false,
          "internalType": "uint256",
          "name": "mintTokens",
          "type": "uint256"
        }
      ],
      "name": "Mint",
      "type": "event"
    },
    {
      "anonymous": false,
      "inputs": [
        {
          "indexed": false,
          "internalType": "address",
          "name": "oldAdmin",
          "type": "address"
        },
        {
          "indexed": false,
          "internalType": "address",
          "name": "newAdmin",
          "type": "address"
        }
      ],
      "name": "NewAdmin",
      "type": "event"
    },
    {
      "anonymous": false,
      "inputs": [
        {
          "indexed": false,
          "internalType": "contract ComptrollerInterface",
          "name": "oldComptroller",
          "type": "address"
        },
        {
          "indexed": false,
          "internalType": "contract ComptrollerInterface",
          "name": "newComptroller",
          "type": "address"
        }
      ],
      "name": "NewComptroller",
      "type": "event"
    },
    {
      "anonymous": false,
      "inputs": [
        {
          "indexed": false,
          "internalType": "contract InterestRateModel",
          "name": "oldInterestRateModel",
          "type": "address"
        },
        {
          "indexed": false,
          "internalType": "contract InterestRateModel",
          "name": "newInterestRateModel",
          "type": "address"
        }
      ],
      "name": "NewMarketInterestRateModel",
      "type": "event"
    },
    {
      "anonymous": false,
      "inputs": [
        {
          "indexed": false,
          "internalType": "address",
          "name": "oldPendingAdmin",
          "type": "address"
        },
        {
          "indexed": false,
          "internalType": "address",
          "name": "newPendingAdmin",
          "type": "address"
        }
      ],
      "name": "NewPendingAdmin",
      "type": "event"
    },
    {
      "anonymous": false,
      "inputs": [
        {
          "indexed": false,
          "internalType": "uint256",
          "name": "oldReserveFactorMantissa",
          "type": "uint256"
        },
        {
          "indexed": false,
          "internalType": "uint256",
          "name": "newReserveFactorMantissa",
          "type": "uint256"
        }
      ],
      "name": "NewReserveFactor",
      "type": "event"
    },
    {
      "anonymous": false,
      "inputs": [
        {
          "indexed": false,
          "internalType": "address",
          "name": "redeemer",
          "type": "address"
        },
        {
          "indexed": false,
          "internalType": "uint256",
          "name": "redeemAmount",
          "type": "uint256"
        },
        {
          "indexed": false,
          "internalType": "uint256",
          "name": "redeemTokens",
          "type": "uint256"
        }
      ],
      "name": "Redeem",
      "type": "event"
    },
    {
      "anonymous": false,
      "inputs": [
        {
          "indexed": false,
          "internalType": "address",
          "name": "payer",
          "type": "address"
        },
        {
          "indexed": false,
          "internalType": "address",
          "name": "borrower",
          "type": "address"
        },
        {
          "indexed": false,
          "internalType": "uint256",
          "name": "repayAmount",
          "type": "uint256"
        },
        {
          "indexed": false,
          "internalType": "uint256",
          "name": "accountBorrows",
          "type": "uint256"
        },
        {
          "indexed": false,
          "internalType": "uint256",
          "name": "totalBorrows",
          "type": "uint256"
        }
      ],
      "name": "RepayBorrow",
      "type": "event"
    },
    {
      "anonymous": false,
      "inputs": [
        {
          "indexed": false,
          "internalType": "address",
          "name": "benefactor",
          "type": "address"
        },
        {
          "indexed": false,
          "internalType": "uint256",
          "name": "addAmount",
          "type": "uint256"
        },
        {
          "indexed": false,
          "internalType": "uint256",
          "name": "newTotalReserves",
          "type": "uint256"
        }
      ],
      "name": "ReservesAdded",
      "type": "event"
    },
    {
      "anonymous": false,
      "inputs": [
        {
          "indexed": false,
          "internalType": "address",
          "name": "admin",
          "type": "address"
        },
        {
          "indexed": false,
          "internalType": "uint256",
          "name": "reduceAmount",
          "type": "uint256"
        },
        {
          "indexed": false,
          "internalType": "uint256",
          "name": "newTotalReserves",
          "type": "uint256"
        }
      ],
      "name": "ReservesReduced",
      "type": "event"
    },
    {
      "anonymous": false,
      "inputs": [
        {
          "indexed": true,
          "internalType": "address",
          "name": "from",
          "type": "address"
        },
        {
          "indexed": true,
          "internalType": "address",
          "name": "to",
          "type": "address"
        },
        {
          "indexed": false,
          "internalType": "uint256",
          "name": "amount",
          "type": "uint256"
        }
      ],
      "name": "Transfer",
      "type": "event"
    },
    {
      "constant": false,
      "inputs": [],
      "name": "_acceptAdmin",
      "outputs": [
        {
          "internalType": "uint256",
          "name": "",
          "type": "uint256"
        }
      ],
      "payable": false,
      "stateMutability": "nonpayable",
      "type": "function"
    },
    {
      "constant": false,
      "inputs": [
        {
          "internalType": "uint256",
          "name": "addAmount",
          "type": "uint256"
        }
      ],
      "name": "_addReserves",
      "outputs": [
        {
          "internalType": "uint256",
          "name": "",
          "type": "uint256"
        }
      ],
      "payable": false,
      "stateMutability": "nonpayable",
      "type": "function"
    },
    {
      "constant": false,
      "inputs": [
        {
          "internalType": "bytes",
          "name": "data",
          "type": "bytes"
        }
      ],
      "name": "_becomeImplementation",
      "outputs": [],
      "payable": false,
      "stateMutability": "nonpayable",
      "type": "function"
    },
    {
      "constant": false,
      "inputs": [
        {
          "internalType": "address payable",
          "name": "to",
          "type": "address"
        },
        {
          "internalType": "uint256",
          "name": "reduceAmount",
          "type": "uint256"
        }
      ],
      "name": "_reduceReserves",
      "outputs": [
        {
          "internalType": "uint256",
          "name": "",
          "type": "uint256"
        }
      ],
      "payable": false,
      "stateMutability": "nonpayable",
      "type": "function"
    },
    {
      "constant": false,
      "inputs": [],
      "name": "_resignImplementation",
      "outputs": [],
      "payable": false,
      "stateMutability": "nonpayable",
      "type": "function"
    },
    {
      "constant": false,
      "inputs": [
        {
          "internalType": "contract ComptrollerInterface",
          "name": "newComptroller",
          "type": "address"
        }
      ],
      "name": "_setComptroller",
      "outputs": [
        {
          "internalType": "uint256",
          "name": "",
          "type": "uint256"
        }
      ],
      "payable": false,
      "stateMutability": "nonpayable",
      "type": "function"
    },
    {
      "constant": false,
      "inputs": [
        {
          "internalType": "contract InterestRateModel",
          "name": "newInterestRateModel",
          "type": "address"
        }
      ],
      "name": "_setInterestRateModel",
      "outputs": [
        {
          "internalType": "uint256",
          "name": "",
          "type": "uint256"
        }
      ],
      "payable": false,
      "stateMutability": "nonpayable",
      "type": "function"
    },
    {
      "constant": false,
      "inputs": [
        {
          "internalType": "address payable",
          "name": "newPendingAdmin",
          "type": "address"
        }
      ],
      "name": "_setPendingAdmin",
      "outputs": [
        {
          "internalType": "uint256",
          "name": "",
          "type": "uint256"
        }
      ],
      "payable": false,
      "stateMutability": "nonpayable",
      "type": "function"
    },
    {
      "constant": false,
      "inputs": [
        {
          "internalType": "uint256",
          "name": "newReserveFactorMantissa",
          "type": "uint256"
        }
      ],
      "name": "_setReserveFactor",
      "outputs": [
        {
          "internalType": "uint256",
          "name": "",
          "type": "uint256"
        }
      ],
      "payable": false,
      "stateMutability": "nonpayable",
      "type": "function"
    },
    {
      "constant": true,
      "inputs": [],
      "name": "accrualBlockNumber",
      "outputs": [
        {
          "internalType": "uint256",
          "name": "",
          "type": "uint256"
        }
      ],
      "payable": false,
      "stateMutability": "view",
      "type": "function"
    },
    {
      "constant": false,
      "inputs": [],
      "name": "accrueInterest",
      "outputs": [
        {
          "internalType": "uint256",
          "name": "",
          "type": "uint256"
        }
      ],
      "payable": false,
      "stateMutability": "nonpayable",
      "type": "function"
    },
    {
      "constant": true,
      "inputs": [],
      "name": "admin",
      "outputs": [
        {
          "internalType": "address payable",
          "name": "",
          "type": "address"
        }
      ],
      "payable": false,
      "stateMutability": "view",
      "type": "function"
    },
    {
      "constant": true,
      "inputs": [
        {
          "internalType": "address",
          "name": "owner",
          "type": "address"
        },
        {
          "internalType": "address",
          "name": "spender",
          "type": "address"
        }
      ],
      "name": "allowance",
      "outputs": [
        {
          "internalType": "uint256",
          "name": "",
          "type": "uint256"
        }
      ],
      "payable": false,
      "stateMutability": "view",
      "type": "function"
    },
    {
      "constant": false,
      "inputs": [
        {
          "internalType": "address",
          "name": "spender",
          "type": "address"
        },
        {
          "internalType": "uint256",
          "name": "amount",
          "type": "uint256"
        }
      ],
      "name": "approve",
      "outputs": [
        {
          "internalType": "bool",
          "name": "",
          "type": "bool"
        }
      ],
      "payable": false,
      "stateMutability": "nonpayable",
      "type": "function"
    },
    {
      "constant": true,
      "inputs": [
        {
          "internalType": "address",
          "name": "owner",
          "type": "address"
        }
      ],
      "name": "balanceOf",
      "outputs": [
        {
          "internalType": "uint256",
          "name": "",
          "type": "uint256"
        }
      ],
      "payable": false,
      "stateMutability": "view",
      "type": "function"
    },
    {
      "constant": false,
      "inputs": [
        {
          "internalType": "address",
          "name": "owner",
          "type": "address"
        }
      ],
      "name": "balanceOfUnderlying",
      "outputs": [
        {
          "internalType": "uint256",
          "name": "",
          "type": "uint256"
        }
      ],
      "payable": false,
      "stateMutability": "nonpayable",
      "type": "function"
    },
    {
      "constant": false,
      "inputs": [
        {
          "internalType": "uint256",
          "name": "borrowAmount",
          "type": "uint256"
        }
      ],
      "name": "borrow",
      "outputs": [
        {
          "internalType": "uint256",
          "name": "",
          "type": "uint256"
        }
      ],
      "payable": false,
      "stateMutability": "nonpayable",
      "type": "function"
    },
    {
      "constant": false,
      "inputs": [
        {
          "internalType": "address",
          "name": "account",
          "type": "address"
        }
      ],
      "name": "borrowBalanceCurrent",
      "outputs": [
        {
          "internalType": "uint256",
          "name": "",
          "type": "uint256"
        }
      ],
      "payable": false,
      "stateMutability": "nonpayable",
      "type": "function"
    },
    {
      "constant": true,
      "inputs": [
        {
          "internalType": "address",
          "name": "account",
          "type": "address"
        }
      ],
      "name": "borrowBalanceStored",
      "outputs": [
        {
          "internalType": "uint256",
          "name": "",
          "type": "uint256"
        }
      ],
      "payable": false,
      "stateMutability": "view",
      "type": "function"
    },
    {
      "constant": true,
      "inputs": [],
      "name": "borrowIndex",
      "outputs": [
        {
          "internalType": "uint256",
          "name": "",
          "type": "uint256"
        }
      ],
      "payable": false,
      "stateMutability": "view",
      "type": "function"
    },
    {
      "constant": true,
      "inputs": [],
      "name": "borrowRatePerBlock",
      "outputs": [
        {
          "internalType": "uint256",
          "name": "",
          "type": "uint256"
        }
      ],
      "payable": false,
      "stateMutability": "view",
      "type": "function"
    },
    {
      "constant": true,
      "inputs": [],
      "name": "comptroller",
      "outputs": [
        {
          "internalType": "contract ComptrollerInterface",
          "name": "",
          "type": "address"
        }
      ],
      "payable": false,
      "stateMutability": "view",
      "type": "function"
    },
    {
      "constant": true,
      "inputs": [],
      "name": "decimals",
      "outputs": [
        {
          "internalType": "uint8",
          "name": "",
          "type": "uint8"
        }
      ],
      "payable": false,
      "stateMutability": "view",
      "type": "function"
    },
    {
      "constant": false,
      "inputs": [],
      "name": "exchangeRateCurrent",
      "outputs": [
        {
          "internalType": "uint256",
          "name": "",
          "type": "uint256"
        }
      ],
      "payable": false,
      "stateMutability": "nonpayable",
      "type": "function"
    },
    {
      "constant": true,
      "inputs": [],
      "name": "exchangeRateStored",
      "outputs": [
        {
          "internalType": "uint256",
          "name": "",
          "type": "uint256"
        }
      ],
      "payable": false,
      "stateMutability": "view",
      "type": "function"
    },
    {
      "constant": true,
      "inputs": [
        {
          "internalType": "address",
          "name": "token",
          "type": "address"
        },
        {
          "internalType": "uint256",
          "name": "amount",
          "type": "uint256"
        }
      ],
      "name": "flashFee",
      "outputs": [
        {
          "internalType": "uint256",
          "name": "",
          "type": "uint256"
        }
      ],
      "payable": false,
      "stateMutability": "view",
      "type": "function"
    },
    {
      "constant": false,
      "inputs": [
        {
          "internalType": "contract IERC3156FlashBorrower",
          "name": "receiver",
          "type": "address"
        },
        {
          "internalType": "address",
          "name": "token",
          "type": "address"
        },
        {
          "internalType": "uint256",
          "name": "amount",
          "type": "uint256"
        },
        {
          "internalType": "bytes",
          "name": "data",
          "type": "bytes"
        }
      ],
      "name": "flashLoan",
      "outputs": [
        {
          "internalType": "bool",
          "name": "",
          "type": "bool"
        }
      ],
      "payable": false,
      "stateMutability": "nonpayable",
      "type": "function"
    },
    {
      "constant": true,
      "inputs": [
        {
          "internalType": "address",
          "name": "account",
          "type": "address"
        }
      ],
      "name": "getAccountSnapshot",
      "outputs": [
        {
          "internalType": "uint256",
          "name": "",
          "type": "uint256"
        },
        {
          "internalType": "uint256",
          "name": "",
          "type": "uint256"
        },
        {
          "internalType": "uint256",
          "name": "",
          "type": "uint256"
        },
        {
          "internalType": "uint256",
          "name": "",
          "type": "uint256"
        }
      ],
      "payable": false,
      "stateMutability": "view",
      "type": "function"
    },
    {
      "constant": true,
      "inputs": [],
      "name": "getCash",
      "outputs": [
        {
          "internalType": "uint256",
          "name": "",
          "type": "uint256"
        }
      ],
      "payable": false,
      "stateMutability": "view",
      "type": "function"
    },
    {
      "constant": false,
      "inputs": [],
      "name": "gulp",
      "outputs": [],
      "payable": false,
      "stateMutability": "nonpayable",
      "type": "function"
    },
    {
      "constant": true,
      "inputs": [],
      "name": "implementation",
      "outputs": [
        {
          "internalType": "address",
          "name": "",
          "type": "address"
        }
      ],
      "payable": false,
      "stateMutability": "view",
      "type": "function"
    },
    {
      "constant": false,
      "inputs": [
        {
          "internalType": "address",
          "name": "underlying_",
          "type": "address"
        },
        {
          "internalType": "contract ComptrollerInterface",
          "name": "comptroller_",
          "type": "address"
        },
        {
          "internalType": "contract InterestRateModel",
          "name": "interestRateModel_",
          "type": "address"
        },
        {
          "internalType": "uint256",
          "name": "initialExchangeRateMantissa_",
          "type": "uint256"
        },
        {
          "internalType": "string",
          "name": "name_",
          "type": "string"
        },
        {
          "internalType": "string",
          "name": "symbol_",
          "type": "string"
        },
        {
          "internalType": "uint8",
          "name": "decimals_",
          "type": "uint8"
        }
      ],
      "name": "initialize",
      "outputs": [],
      "payable": false,
      "stateMutability": "nonpayable",
      "type": "function"
    },
    {
      "constant": false,
      "inputs": [
        {
          "internalType": "contract ComptrollerInterface",
          "name": "comptroller_",
          "type": "address"
        },
        {
          "internalType": "contract InterestRateModel",
          "name": "interestRateModel_",
          "type": "address"
        },
        {
          "internalType": "uint256",
          "name": "initialExchangeRateMantissa_",
          "type": "uint256"
        },
        {
          "internalType": "string",
          "name": "name_",
          "type": "string"
        },
        {
          "internalType": "string",
          "name": "symbol_",
          "type": "string"
        },
        {
          "internalType": "uint8",
          "name": "decimals_",
          "type": "uint8"
        }
      ],
      "name": "initialize",
      "outputs": [],
      "payable": false,
      "stateMutability": "nonpayable",
      "type": "function"
    },
    {
      "constant": true,
      "inputs": [],
      "name": "interestRateModel",
      "outputs": [
        {
          "internalType": "contract InterestRateModel",
          "name": "",
          "type": "address"
        }
      ],
      "payable": false,
      "stateMutability": "view",
      "type": "function"
    },
    {
      "constant": true,
      "inputs": [],
      "name": "internalCash",
      "outputs": [
        {
          "internalType": "uint256",
          "name": "",
          "type": "uint256"
        }
      ],
      "payable": false,
      "stateMutability": "view",
      "type": "function"
    },
    {
      "constant": true,
      "inputs": [],
      "name": "isCToken",
      "outputs": [
        {
          "internalType": "bool",
          "name": "",
          "type": "bool"
        }
      ],
      "payable": false,
      "stateMutability": "view",
      "type": "function"
    },
    {
      "constant": true,
      "inputs": [],
      "name": "isNativeToken",
      "outputs": [
        {
          "internalType": "bool",
          "name": "",
          "type": "bool"
        }
      ],
      "payable": false,
      "stateMutability": "pure",
      "type": "function"
    },
    {
      "constant": false,
      "inputs": [
        {
          "internalType": "address",
          "name": "borrower",
          "type": "address"
        },
        {
          "internalType": "uint256",
          "name": "repayAmount",
          "type": "uint256"
        },
        {
          "internalType": "contract CTokenInterface",
          "name": "cTokenCollateral",
          "type": "address"
        }
      ],
      "name": "liquidateBorrow",
      "outputs": [
        {
          "internalType": "uint256",
          "name": "",
          "type": "uint256"
        }
      ],
      "payable": false,
      "stateMutability": "nonpayable",
      "type": "function"
    },
    {
      "constant": true,
      "inputs": [
        {
          "internalType": "address",
          "name": "token",
          "type": "address"
        }
      ],
      "name": "maxFlashLoan",
      "outputs": [
        {
          "internalType": "uint256",
          "name": "",
          "type": "uint256"
        }
      ],
      "payable": false,
      "stateMutability": "view",
      "type": "function"
    },
    {
      "constant": false,
      "inputs": [
        {
          "internalType": "uint256",
          "name": "mintAmount",
          "type": "uint256"
        }
      ],
      "name": "mint",
      "outputs": [
        {
          "internalType": "uint256",
          "name": "",
          "type": "uint256"
        }
      ],
      "payable": false,
      "stateMutability": "nonpayable",
      "type": "function"
    },
    {
      "constant": true,
      "inputs": [],
      "name": "name",
      "outputs": [
        {
          "internalType": "string",
          "name": "",
          "type": "string"
        }
      ],
      "payable": false,
      "stateMutability": "view",
      "type": "function"
    },
    {
      "constant": true,
      "inputs": [],
      "name": "pendingAdmin",
      "outputs": [
        {
          "internalType": "address payable",
          "name": "",
          "type": "address"
        }
      ],
      "payable": false,
      "stateMutability": "view",
      "type": "function"
    },
    {
      "constant": false,
      "inputs": [
        {
          "internalType": "uint256",
          "name": "redeemTokens",
          "type": "uint256"
        }
      ],
      "name": "redeem",
      "outputs": [
        {
          "internalType": "uint256",
          "name": "",
          "type": "uint256"
        }
      ],
      "payable": false,
      "stateMutability": "nonpayable",
      "type": "function"
    },
    {
      "constant": false,
      "inputs": [
        {
          "internalType": "uint256",
          "name": "redeemAmount",
          "type": "uint256"
        }
      ],
      "name": "redeemUnderlying",
      "outputs": [
        {
          "internalType": "uint256",
          "name": "",
          "type": "uint256"
        }
      ],
      "payable": false,
      "stateMutability": "nonpayable",
      "type": "function"
    },
    {
      "constant": false,
      "inputs": [
        {
          "internalType": "uint256",
          "name": "repayAmount",
          "type": "uint256"
        }
      ],
      "name": "repayBorrow",
      "outputs": [
        {
          "internalType": "uint256",
          "name": "",
          "type": "uint256"
        }
      ],
      "payable": false,
      "stateMutability": "nonpayable",
      "type": "function"
    },
    {
      "constant": false,
      "inputs": [
        {
          "internalType": "address",
          "name": "borrower",
          "type": "address"
        },
        {
          "internalType": "uint256",
          "name": "repayAmount",
          "type": "uint256"
        }
      ],
      "name": "repayBorrowBehalf",
      "outputs": [
        {
          "internalType": "uint256",
          "name": "",
          "type": "uint256"
        }
      ],
      "payable": false,
      "stateMutability": "nonpayable",
      "type": "function"
    },
    {
      "constant": true,
      "inputs": [],
      "name": "reserveFactorMantissa",
      "outputs": [
        {
          "internalType": "uint256",
          "name": "",
          "type": "uint256"
        }
      ],
      "payable": false,
      "stateMutability": "view",
      "type": "function"
    },
    {
      "constant": false,
      "inputs": [
        {
          "internalType": "address",
          "name": "liquidator",
          "type": "address"
        },
        {
          "internalType": "address",
          "name": "borrower",
          "type": "address"
        },
        {
          "internalType": "uint256",
          "name": "seizeTokens",
          "type": "uint256"
        }
      ],
      "name": "seize",
      "outputs": [
        {
          "internalType": "uint256",
          "name": "",
          "type": "uint256"
        }
      ],
      "payable": false,
      "stateMutability": "nonpayable",
      "type": "function"
    },
    {
      "constant": true,
      "inputs": [],
      "name": "supplyRatePerBlock",
      "outputs": [
        {
          "internalType": "uint256",
          "name": "",
          "type": "uint256"
        }
      ],
      "payable": false,
      "stateMutability": "view",
      "type": "function"
    },
    {
      "constant": false,
      "inputs": [
        {
          "internalType": "contract EIP20NonStandardInterface",
          "name": "token",
          "type": "address"
        }
      ],
      "name": "sweepToken",
      "outputs": [],
      "payable": false,
      "stateMutability": "nonpayable",
      "type": "function"
    },
    {
      "constant": true,
      "inputs": [],
      "name": "symbol",
      "outputs": [
        {
          "internalType": "string",
          "name": "",
          "type": "string"
        }
      ],
      "payable": false,
      "stateMutability": "view",
      "type": "function"
    },
    {
      "constant": true,
      "inputs": [],
      "name": "totalBorrows",
      "outputs": [
        {
          "internalType": "uint256",
          "name": "",
          "type": "uint256"
        }
      ],
      "payable": false,
      "stateMutability": "view",
      "type": "function"
    },
    {
      "constant": false,
      "inputs": [],
      "name": "totalBorrowsCurrent",
      "outputs": [
        {
          "internalType": "uint256",
          "name": "",
          "type": "uint256"
        }
      ],
      "payable": false,
      "stateMutability": "nonpayable",
      "type": "function"
    },
    {
      "constant": true,
      "inputs": [],
      "name": "totalReserves",
      "outputs": [
        {
          "internalType": "uint256",
          "name": "",
          "type": "uint256"
        }
      ],
      "payable": false,
      "stateMutability": "view",
      "type": "function"
    },
    {
      "constant": true,
      "inputs": [],
      "name": "totalSupply",
      "outputs": [
        {
          "internalType": "uint256",
          "name": "",
          "type": "uint256"
        }
      ],
      "payable": false,
      "stateMutability": "view",
      "type": "function"
    },
    {
      "constant": false,
      "inputs": [
        {
          "internalType": "address",
          "name": "dst",
          "type": "address"
        },
        {
          "internalType": "uint256",
          "name": "amount",
          "type": "uint256"
        }
      ],
      "name": "transfer",
      "outputs": [
        {
          "internalType": "bool",
          "name": "",
          "type": "bool"
        }
      ],
      "payable": false,
      "stateMutability": "nonpayable",
      "type": "function"
    },
    {
      "constant": false,
      "inputs": [
        {
          "internalType": "address",
          "name": "src",
          "type": "address"
        },
        {
          "internalType": "address",
          "name": "dst",
          "type": "address"
        },
        {
          "internalType": "uint256",
          "name": "amount",
          "type": "uint256"
        }
      ],
      "name": "transferFrom",
      "outputs": [
        {
          "internalType": "bool",
          "name": "",
          "type": "bool"
        }
      ],
      "payable": false,
      "stateMutability": "nonpayable",
      "type": "function"
    },
    {
      "constant": true,
      "inputs": [],
      "name": "underlying",
      "outputs": [
        {
          "internalType": "address",
          "name": "",
          "type": "address"
        }
      ],
      "payable": false,
      "stateMutability": "view",
      "type": "function"
    }
  ],
  "transactionHash": "0xaae119d9fae20fbf8051e4c446a09ee66b607fa3bd73252e5ee2e666b6b0a9d6",
  "args": [],
  "numDeployments": 1,
  "solcInputHash": "4611695ea7dda092c6ff3fb3d147bd7b",
  "bytecode": "0x608060405234801561001057600080fd5b50614e10806100206000396000f3fe608060405234801561001057600080fd5b506004361061038e5760003560e01c8063852a12e3116101de578063bd6d894d1161010f578063e9c714f2116100ad578063f851a4401161007c578063f851a44014610cfc578063f8f9da2814610d04578063fca7820b14610d0c578063fe9c44ae14610d295761038e565b8063e9c714f214610c90578063f2b3abbd14610c98578063f3fdb15a14610cbe578063f5e3c46214610cc65761038e565b8063c5ebeaec116100e9578063c5ebeaec14610bfc578063d9d98ce414610c19578063db006a7514610c45578063dd62ed3e14610c625761038e565b8063bd6d894d14610b7c578063c0c5b91014610b84578063c37f68e214610bb05761038e565b8063a0712d681161017c578063aa5af0fd11610156578063aa5af0fd14610b10578063ae9d70b014610b18578063b2a02ff114610b20578063b71d1a0c14610b565761038e565b8063a0712d6814610abf578063a6afed9514610adc578063a9059cbb14610ae45761038e565b806395d89b41116101b857806395d89b411461093b57806395dd91931461094357806399d8c1b4146109695780639af4ee7e14610ab75761038e565b8063852a12e31461090e5780638f840ddd1461092b57806394909e62146109335761038e565b8063313ce567116102c35780635c60da1b116102615780636c540baf116102305780636c540baf146108d05780636f307dc3146108d857806370a08231146108e057806373acee98146109065761038e565b80635c60da1b1461080c5780635cffe9de146108145780635fe3b567146108a2578063613255ab146108aa5761038e565b80633e9410101161029d5780633e9410101461071d5780634576b5db1461073a57806347bd37181461076057806356e67728146107685761038e565b8063313ce567146106d15780633af9e669146106ef5780633b1d21a2146107155761038e565b8063182df0f51161033057806322abdbf51161030a57806322abdbf51461064357806323b872dd1461064b5780632608f8181461068157806326782247146106ad5761038e565b8063182df0f5146104bf5780631a31d465146104c75780631be195601461061d5761038e565b8063153ab5051161036c578063153ab5051461047f578063173b99041461048957806317bfdfbc1461049157806318160ddd146104b75761038e565b806306fdde0314610393578063095ea7b3146104105780630e75270214610450575b600080fd5b61039b610d31565b6040805160208082528351818301528351919283929083019185019080838360005b838110156103d55781810151838201526020016103bd565b50505050905090810190601f1680156104025780820380516001836020036101000a031916815260200191505b509250505060405180910390f35b61043c6004803603604081101561042657600080fd5b506001600160a01b038135169060200135610dbe565b604080519115158252519081900360200190f35b61046d6004803603602081101561046657600080fd5b5035610e2b565b60408051918252519081900360200190f35b610487610e41565b005b61046d610e91565b61046d600480360360208110156104a757600080fd5b50356001600160a01b0316610e97565b61046d610f0c565b61046d610f12565b610487600480360360e08110156104dd57600080fd5b6001600160a01b03823581169260208101358216926040820135909216916060820135919081019060a081016080820135600160201b81111561051f57600080fd5b82018360208201111561053157600080fd5b803590602001918460018302840111600160201b8311171561055257600080fd5b91908080601f0160208091040260200160405190810160405280939291908181526020018383808284376000920191909152509295949360208101935035915050600160201b8111156105a457600080fd5b8201836020820111156105b657600080fd5b803590602001918460018302840111600160201b831117156105d757600080fd5b91908080601f0160208091040260200160405190810160405280939291908181526020018383808284376000920191909152509295505050903560ff169150610f229050565b6104876004803603602081101561063357600080fd5b50356001600160a01b0316610fc1565b61046d611113565b61043c6004803603606081101561066157600080fd5b506001600160a01b03813581169160208101359091169060400135611119565b61046d6004803603604081101561069757600080fd5b506001600160a01b03813516906020013561118b565b6106b56111a1565b604080516001600160a01b039092168252519081900360200190f35b6106d96111b0565b6040805160ff9092168252519081900360200190f35b61046d6004803603602081101561070557600080fd5b50356001600160a01b03166111b9565b61046d611206565b61046d6004803603602081101561073357600080fd5b5035611210565b61046d6004803603602081101561075057600080fd5b50356001600160a01b031661121b565b61046d61135f565b6104876004803603602081101561077e57600080fd5b810190602081018135600160201b81111561079857600080fd5b8201836020820111156107aa57600080fd5b803590602001918460018302840111600160201b831117156107cb57600080fd5b91908080601f016020809104026020016040519081016040528093929190818152602001838380828437600092019190915250929550611365945050505050565b6106b56113c1565b61043c6004803603608081101561082a57600080fd5b6001600160a01b03823581169260208101359091169160408201359190810190608081016060820135600160201b81111561086457600080fd5b82018360208201111561087657600080fd5b803590602001918460018302840111600160201b8311171561089757600080fd5b5090925090506113d0565b6106b561167a565b61046d600480360360208110156108c057600080fd5b50356001600160a01b0316611689565b61046d611711565b6106b5611717565b61046d600480360360208110156108f657600080fd5b50356001600160a01b0316611726565b61046d611741565b61046d6004803603602081101561092457600080fd5b50356117ad565b61046d6117b8565b6104876117be565b61039b611853565b61046d6004803603602081101561095957600080fd5b50356001600160a01b03166118ab565b610487600480360360c081101561097f57600080fd5b6001600160a01b03823581169260208101359091169160408201359190810190608081016060820135600160201b8111156109b957600080fd5b8201836020820111156109cb57600080fd5b803590602001918460018302840111600160201b831117156109ec57600080fd5b91908080601f0160208091040260200160405190810160405280939291908181526020018383808284376000920191909152509295949360208101935035915050600160201b811115610a3e57600080fd5b820183602082011115610a5057600080fd5b803590602001918460018302840111600160201b83111715610a7157600080fd5b91908080601f0160208091040260200160405190810160405280939291908181526020018383808284376000920191909152509295505050903560ff1691506118b69050565b61043c611a8f565b61046d60048036036020811015610ad557600080fd5b5035611a94565b61046d611aa0565b61043c60048036036040811015610afa57600080fd5b506001600160a01b038135169060200135611ca7565b61046d611d18565b61046d611d1e565b61046d60048036036060811015610b3657600080fd5b506001600160a01b03813581169160208101359091169060400135611dbd565b61046d60048036036020811015610b6c57600080fd5b50356001600160a01b0316611e2e565b61046d611eba565b61046d60048036036040811015610b9a57600080fd5b506001600160a01b038135169060200135611f2c565b610bd660048036036020811015610bc657600080fd5b50356001600160a01b0316611fa3565b604080519485526020850193909352838301919091526060830152519081900360800190f35b61046d60048036036020811015610c1257600080fd5b5035611fe9565b61046d60048036036040811015610c2f57600080fd5b506001600160a01b038135169060200135611ff4565b61046d60048036036020811015610c5b57600080fd5b5035612009565b61046d60048036036040811015610c7857600080fd5b506001600160a01b0381358116916020013516612014565b61046d61203f565b61046d60048036036020811015610cae57600080fd5b50356001600160a01b0316612137565b6106b561214b565b61046d60048036036060811015610cdc57600080fd5b506001600160a01b0381358116916020810135916040909101351661215a565b6106b5612172565b61046d612186565b61046d60048036036020811015610d2257600080fd5b50356121ea565b61043c61224b565b60018054604080516020600284861615610100026000190190941693909304601f81018490048402820184019092528181529291830182828015610db65780601f10610d8b57610100808354040283529160200191610db6565b820191906000526020600020905b815481529060010190602001808311610d9957829003601f168201915b505050505081565b336000818152600f602090815260408083206001600160a01b03871680855290835281842086905581518681529151939493909284927f8c5be1e5ebec7d5bd14f71427d1e84f3dd0314c0f7b2291e5b200ac8c7c3b925929081900390910190a360019150505b92915050565b600080610e3783612250565b509150505b919050565b60035461010090046001600160a01b03163314610e8f5760405162461bcd60e51b815260040180806020018281038252602d815260200180614d62602d913960400191505060405180910390fd5b565b60085481565b6000805460ff16610edc576040805162461bcd60e51b815260206004820152600a6024820152691c994b595b9d195c995960b21b604482015290519081900360640190fd5b6000805460ff19169055610eee611aa0565b50610ef8826118ab565b90506000805460ff19166001179055919050565b600d5481565b6000610f1c6122cd565b90505b90565b610f308686868686866118b6565b601180546001600160a01b0319166001600160a01b038981169190911791829055604080516318160ddd60e01b8152905192909116916318160ddd91600480820192602092909190829003018186803b158015610f8c57600080fd5b505afa158015610fa0573d6000803e3d6000fd5b505050506040513d6020811015610fb657600080fd5b505050505050505050565b6011546001600160a01b0382811691161415611024576040805162461bcd60e51b815260206004820152601e60248201527f63616e206e6f7420737765657020756e6465726c79696e6720746f6b656e0000604482015290519081900360640190fd5b604080516370a0823160e01b815230600482015290516000916001600160a01b038416916370a0823191602480820192602092909190829003018186803b15801561106e57600080fd5b505afa158015611082573d6000803e3d6000fd5b505050506040513d602081101561109857600080fd5b50516003546040805163a9059cbb60e01b81526101009092046001600160a01b03908116600484015260248301849052905192935084169163a9059cbb9160448082019260009290919082900301818387803b1580156110f757600080fd5b505af115801561110b573d6000803e3d6000fd5b505050505050565b60135481565b6000805460ff1661115e576040805162461bcd60e51b815260206004820152600a6024820152691c994b595b9d195c995960b21b604482015290519081900360640190fd5b6000805460ff1916815561117433868686612333565b1490506000805460ff191660011790559392505050565b6000806111988484612366565b50949350505050565b6004546001600160a01b031681565b60035460ff1681565b60006111c3614bde565b60405180602001604052806111d6611eba565b90526001600160a01b0384166000908152600e60205260409020549091506111ff9082906123e5565b9392505050565b6000610f1c612404565b6000610e258261240a565b60035460009061010090046001600160a01b03163314611248576112416001603f612483565b9050610e3c565b60055460408051623f1ee960e11b815290516001600160a01b0392831692851691627e3dd2916004808301926020929190829003018186803b15801561128d57600080fd5b505afa1580156112a1573d6000803e3d6000fd5b505050506040513d60208110156112b757600080fd5b50516112fc576040805162461bcd60e51b815260206004820152600f60248201526e3737ba1031b7b6b83a3937b63632b960891b604482015290519081900360640190fd5b600580546001600160a01b0319166001600160a01b03858116918217909255604080519284168352602083019190915280517f7ac369dbd14fa5ea3f473ed67cc9d598964a77501540ba6751eb0b3decf5870d9281900390910190a160006111ff565b600b5481565b60035461010090046001600160a01b031633146113b35760405162461bcd60e51b815260040180806020018281038252602d815260200180614daf602d913960400191505060405180910390fd5b6113bb6124e9565b60135550565b6012546001600160a01b031681565b60006113da611aa0565b506113e485612569565b60055460408051632af2914b60e01b81523060048201526001600160a01b0389811660248301526044820188905291519190921691632af2914b916064808301926020929190829003018186803b15801561143e57600080fd5b505afa158015611452573d6000803e3d6000fd5b505050506040513d602081101561146857600080fd5b5060009050611475612404565b9050848110156114c0576040805162461bcd60e51b81526020600482015260116024820152700d2dce6eaccccd2c6d2cadce840c6c2e6d607b1b604482015290519081900360640190fd5b60006114cc87876125c1565b90506114da600b54876126ba565b600b556114e88888886126f0565b604080517f45524333313536466c617368426f72726f7765722e6f6e466c6173684c6f616e815290519081900360200181206323e30c8b60e01b825233600483018181526001600160a01b038b81166024860152604485018b90526064850186905260a06084860190815260a486018a90529394908d16936323e30c8b93928d928d9289928e928e929060c401848480828437600081840152601f19601f820116905080830192505050975050505050505050602060405180830381600087803b1580156115b557600080fd5b505af11580156115c9573d6000803e3d6000fd5b505050506040513d60208110156115df57600080fd5b505114611633576040805162461bcd60e51b815260206004820152601960248201527f49455243333135363a2043616c6c6261636b206661696c656400000000000000604482015290519081900360640190fd5b600061163f87836126ba565b905061164c8989836126ff565b611658600c54836126ba565b600c55600b546116689088612751565b600b5550600198975050505050505050565b6005546001600160a01b031681565b600061169482612569565b6005546040805163e0fbf09d60e01b815230600482015290516001600160a01b039092169163e0fbf09d91602480820192602092909190829003018186803b1580156116df57600080fd5b505afa1580156116f3573d6000803e3d6000fd5b505050506040513d602081101561170957600080fd5b505192915050565b60095481565b6011546001600160a01b031681565b6001600160a01b03166000908152600e602052604090205490565b6000805460ff16611786576040805162461bcd60e51b815260206004820152600a6024820152691c994b595b9d195c995960b21b604482015290519081900360640190fd5b6000805460ff19169055611798611aa0565b5050600b546000805460ff1916600117905590565b6000610e258261278b565b600c5481565b60005460ff16611802576040805162461bcd60e51b815260206004820152600a6024820152691c994b595b9d195c995960b21b604482015290519081900360640190fd5b6000805460ff191681556118146124e9565b90506000611820612404565b9050600061182e8383612751565b905061183c600c54826126ba565b600c5550506013556000805460ff19166001179055565b6002805460408051602060018416156101000260001901909316849004601f81018490048402820184019092528181529291830182828015610db65780601f10610d8b57610100808354040283529160200191610db6565b6000610e25826127ef565b60035461010090046001600160a01b03163314611907576040805162461bcd60e51b815260206004820152600a60248201526937b7363c9030b236b4b760b11b604482015290519081900360640190fd5b6009541580156119175750600a54155b611950576040805162461bcd60e51b8152602060048201526005602482015264216f6e636560d81b604482015290519081900360640190fd5b60078490558361198d576040805162461bcd60e51b81526020600482015260036024820152620213e360ec1b604482015290519081900360640190fd5b60006119988761121b565b905080156119dc576040805162461bcd60e51b815260206004820152600c60248201526b10b1b7b6b83a3937b63632b960a11b604482015290519081900360640190fd5b6119e4612846565b600955670de0b6b3a7640000600a556119fc8661284a565b90508015611a41576040805162461bcd60e51b815260206004820152600d60248201526c21696e7465726573745261746560981b604482015290519081900360640190fd5b8351611a54906001906020870190614bf1565b508251611a68906002906020860190614bf1565b50506003805460ff90921660ff199283161790556000805490911660011790555050505050565b600090565b600080610e3783612a55565b600080611aab612846565b60095490915080821415611ac457600092505050610f1f565b6000611ace612404565b600b54600c54600a54600654604080516315f2405360e01b815260048101879052602481018690526044810185905290519596509394929391926000926001600160a01b03909216916315f24053916064808301926020929190829003018186803b158015611b3c57600080fd5b505afa158015611b50573d6000803e3d6000fd5b505050506040513d6020811015611b6657600080fd5b5051905065048c27395000811115611bbc576040805162461bcd60e51b81526020600482015260146024820152730c4dee4e4deee40e4c2e8ca40e8dede40d0d2ced60631b604482015290519081900360640190fd5b6000611bc88888612751565b9050611bd2614bde565b611bea60405180602001604052808581525083612ab9565b90506000611bf882886123e5565b90506000611c0682896126ba565b90506000611c256040518060200160405280600854815250848a612ae3565b90506000611c3485898a612ae3565b60098e9055600a819055600b849055600c839055604080518d8152602081018790528082018390526060810186905290519192507f4dec04e750ca11537cabcd8a9eab06494de08da3735bc8871cd41250e190bc04919081900360800190a160009d505050505050505050505050505090565b6000805460ff16611cec576040805162461bcd60e51b815260206004820152600a6024820152691c994b595b9d195c995960b21b604482015290519081900360640190fd5b6000805460ff19168155611d0233338686612333565b1490506000805460ff1916600117905592915050565b600a5481565b6006546000906001600160a01b031663b8168816611d3a612404565b600b54600c546008546040518563ffffffff1660e01b81526004018085815260200184815260200183815260200182815260200194505050505060206040518083038186803b158015611d8c57600080fd5b505afa158015611da0573d6000803e3d6000fd5b505050506040513d6020811015611db657600080fd5b5051905090565b6000805460ff16611e02576040805162461bcd60e51b815260206004820152600a6024820152691c994b595b9d195c995960b21b604482015290519081900360640190fd5b6000805460ff19169055611e1833858585612b0b565b90506000805460ff191660011790559392505050565b60035460009061010090046001600160a01b03163314611e545761124160016045612483565b600480546001600160a01b038481166001600160a01b0319831681179093556040805191909216808252602082019390935281517fca4f2f25d0898edd99413412fb94012f9e54ec8142f9b093e7720646a95b16a9929181900390910190a160006111ff565b6000805460ff16611eff576040805162461bcd60e51b815260206004820152600a6024820152691c994b595b9d195c995960b21b604482015290519081900360640190fd5b6000805460ff19169055611f11611aa0565b50611f1a610f12565b90506000805460ff1916600117905590565b6000805460ff16611f71576040805162461bcd60e51b815260206004820152600a6024820152691c994b595b9d195c995960b21b604482015290519081900360640190fd5b6000805460ff19169055611f83611aa0565b50611f8e8383612f3b565b90506000805460ff1916600117905592915050565b6001600160a01b0381166000908152600e60205260408120548190819081908180611fcd886127ef565b9150611fd76122cd565b90506000989297509095509350915050565b6000610e258261309b565b6000611fff83612569565b6111ff83836125c1565b6000610e25826130fd565b6001600160a01b039182166000908152600f6020908152604080832093909416825291909152205490565b6004546000906001600160a01b031633146120675761206060016000612483565b9050610f1f565b60038054600480546001600160a01b03818116610100818102610100600160a81b0319871617968790556001600160a01b031990931690935560408051948390048216808652929095041660208401528351909391927ff9ffabca9c8276e99321725bcb43fb076a6c66a54b7f21c4e8146d8519b417dc92908290030190a1600454604080516001600160a01b038085168252909216602083015280517fca4f2f25d0898edd99413412fb94012f9e54ec8142f9b093e7720646a95b16a99281900390910190a160009250505090565b6000612141611aa0565b50610e258261284a565b6006546001600160a01b031681565b600080612168858585613161565b5095945050505050565b60035461010090046001600160a01b031681565b6006546000906001600160a01b03166315f240536121a2612404565b600b54600c546040518463ffffffff1660e01b815260040180848152602001838152602001828152602001935050505060206040518083038186803b158015611d8c57600080fd5b6000805460ff1661222f576040805162461bcd60e51b815260206004820152600a6024820152691c994b595b9d195c995960b21b604482015290519081900360640190fd5b6000805460ff19169055612241611aa0565b50610ef882613296565b600181565b60008054819060ff16612297576040805162461bcd60e51b815260206004820152600a6024820152691c994b595b9d195c995960b21b604482015290519081900360640190fd5b6000805460ff191690556122a9611aa0565b506122b53333856133c2565b915091506000805460ff191660011790559092909150565b600d54600090806122e2575050600754610f1f565b60006122ec612404565b905060006123076122ff83600b546126ba565b600c54612751565b90506000612323826040518060200160405280878152506135d4565b9450610f1f9350505050565b5090565b600080612342868686866135f2565b90508061235b57612352856137fa565b61235b846137fa565b90505b949350505050565b60008054819060ff166123ad576040805162461bcd60e51b815260206004820152600a6024820152691c994b595b9d195c995960b21b604482015290519081900360640190fd5b6000805460ff191690556123bf611aa0565b506123cb3385856133c2565b915091506000805460ff1916600117905590939092509050565b60006123ef614bde565b6123f98484612ab9565b905061235e81613963565b60135490565b6000805460ff1661244f576040805162461bcd60e51b815260206004820152600a6024820152691c994b595b9d195c995960b21b604482015290519081900360640190fd5b6000805460ff19169055612461611aa0565b50600061246d83613972565b509150506000805460ff19166001179055919050565b60007f45b96fe442630264581b197e84bbada861235052c5a1aadfff9ea4e40a969aa08360108111156124b257fe5b8360508111156124be57fe5b604080519283526020830191909152600082820152519081900360600190a18260108111156111ff57fe5b601154604080516370a0823160e01b815230600482015290516000926001600160a01b03169182916370a0823191602480820192602092909190829003018186803b15801561253757600080fd5b505afa15801561254b573d6000803e3d6000fd5b505050506040513d602081101561256157600080fd5b505191505090565b6011546001600160a01b038281169116146125be576040805162461bcd60e51b815260206004820152601060248201526f10b33630b9b43637b0b7103a37b5b2b760811b604482015290519081900360640190fd5b50565b60055460408051638a0b5eef60e01b815290516000926001600160a01b031691638a0b5eef916004808301926020929190829003018186803b15801561260657600080fd5b505afa15801561261a573d6000803e3d6000fd5b505050506040513d602081101561263057600080fd5b50516040805163638d09e360e11b81523360048201523060248201526044810185905290516001600160a01b039092169163c71a13c691606480820192602092909190829003018186803b15801561268757600080fd5b505afa15801561269b573d6000803e3d6000fd5b505050506040513d60208110156126b157600080fd5b50519392505050565b60006111ff8383604051806040016040528060118152602001706164646974696f6e206f766572666c6f7760781b815250613a0d565b6126fa8382613a9f565b505050565b600061270b8483613b9f565b905081811461274b576040805162461bcd60e51b815260206004820152600760248201526608585b5bdd5b9d60ca1b604482015290519081900360640190fd5b50505050565b60006111ff8383604051806040016040528060158152602001747375627472616374696f6e20756e646572666c6f7760581b815250613daf565b6000805460ff166127d0576040805162461bcd60e51b815260206004820152600a6024820152691c994b595b9d195c995960b21b604482015290519081900360640190fd5b6000805460ff191690556127e2611aa0565b50610ef833600084613e09565b6001600160a01b038116600090815260106020526040812080548291829161281d5760009350505050610e3c565b61282d8160000154600a54613e27565b925061283d838260010154613e69565b95945050505050565b4390565b600080600560009054906101000a90046001600160a01b03166001600160a01b031663dd09c4f86040518163ffffffff1660e01b815260040160206040518083038186803b15801561289b57600080fd5b505afa1580156128af573d6000803e3d6000fd5b505050506040513d60208110156128c557600080fd5b50516001600160a01b031633148015906128ef575060035461010090046001600160a01b03163314155b156129085761290060016042612483565b915050610e3c565b612910612846565b6009541461292457612900600a6041612483565b600660009054906101000a90046001600160a01b03169050826001600160a01b0316632191f92a6040518163ffffffff1660e01b815260040160206040518083038186803b15801561297557600080fd5b505afa158015612989573d6000803e3d6000fd5b505050506040513d602081101561299f57600080fd5b50516129f2576040805162461bcd60e51b815260206004820152601c60248201527f6d61726b6572206d6574686f642072657475726e65642066616c736500000000604482015290519081900360640190fd5b600680546001600160a01b0319166001600160a01b03858116918217909255604080519284168352602083019190915280517fedffc32e068c7c95dfd4bdfd5c4d939a084d6b11c4199eac8436ed234d72f9269281900390910190a160006111ff565b60008054819060ff16612a9c576040805162461bcd60e51b815260206004820152600a6024820152691c994b595b9d195c995960b21b604482015290519081900360640190fd5b6000805460ff19169055612aae611aa0565b506122b53384613e9c565b612ac1614bde565b6040518060200160405280612ada856000015185613e27565b90529392505050565b6000612aed614bde565b612af78585612ab9565b905061283d612b0582613963565b846126ba565b6005546040805163d02f735160e01b81523060048201526001600160a01b038781166024830152868116604483015285811660648301526084820185905291516000938493169163d02f73519160a480830192602092919082900301818787803b158015612b7857600080fd5b505af1158015612b8c573d6000803e3d6000fd5b505050506040513d6020811015612ba257600080fd5b505190508015612bc157612bb96003601b83613ecc565b91505061235e565b846001600160a01b0316846001600160a01b03161415612be757612bb96006601c612483565b612bef614c6b565b60055460408051638a0b5eef60e01b815290516000926001600160a01b031691638a0b5eef916004808301926020929190829003018186803b158015612c3457600080fd5b505afa158015612c48573d6000803e3d6000fd5b505050506040513d6020811015612c5e57600080fd5b505160055460408051636b4374f760e11b81526001600160a01b038c811660048301529151939450600093919092169163d686e9ee916024808301926020929190829003018186803b158015612cb357600080fd5b505afa158015612cc7573d6000803e3d6000fd5b505050506040513d6020811015612cdd57600080fd5b505160408051630655a3bd60e11b8152600481018990526024810183905281519293506001600160a01b03851692630cab477a92604480840193919291829003018186803b158015612d2e57600080fd5b505afa158015612d42573d6000803e3d6000fd5b505050506040513d6040811015612d5857600080fd5b508051602091820151606086015260808501526040805163ee9e819960e01b815290516000926001600160a01b0386169263ee9e81999260048083019392829003018186803b158015612daa57600080fd5b505afa158015612dbe573d6000803e3d6000fd5b505050506040513d6020811015612dd457600080fd5b50516001600160a01b0389166000908152600e6020526040902054909150612dfc9088612751565b84526001600160a01b0389166000908152600e60205260409020546080850151612e2691906126ba565b6020808601919091526001600160a01b0382166000908152600e90915260409020546060850151612e5791906126ba565b604080860191825285516001600160a01b03808c166000908152600e602090815284822093909355918801518d8216835283832055925192841681522055612e9e886137fa565b612ea7896137fa565b612eb0816137fa565b886001600160a01b0316886001600160a01b0316600080516020614d8f83398151915286608001516040518082815260200191505060405180910390a3806001600160a01b0316886001600160a01b0316600080516020614d8f83398151915286606001516040518082815260200191505060405180910390a360005b9a9950505050505050505050565b600080600560009054906101000a90046001600160a01b03166001600160a01b031663dd09c4f86040518163ffffffff1660e01b815260040160206040518083038186803b158015612f8c57600080fd5b505afa158015612fa0573d6000803e3d6000fd5b505050506040513d6020811015612fb657600080fd5b50516001600160a01b03163314612fdb57612fd360016031612483565b915050610e25565b612fe3612846565b60095414612ff757612fd3600a6033612483565b82613000612404565b101561301257612fd3600e6032612483565b600c5483111561302857612fd360026034612483565b50600c548281039081111561303c57600080fd5b600c81905561304b8484613a9f565b604080516001600160a01b03861681526020810185905280820183905290517f3bad0c59cf2f06e7314077049f48a93578cd16f5ef92329f1dab1420a99c177e9181900360600190a1600061235e565b6000805460ff166130e0576040805162461bcd60e51b815260206004820152600a6024820152691c994b595b9d195c995960b21b604482015290519081900360640190fd5b6000805460ff191690556130f2611aa0565b50610ef83383613f32565b6000805460ff16613142576040805162461bcd60e51b815260206004820152600a6024820152691c994b595b9d195c995960b21b604482015290519081900360640190fd5b6000805460ff19169055613154611aa0565b50610ef833836000613e09565b60008054819060ff166131a8576040805162461bcd60e51b815260206004820152600a6024820152691c994b595b9d195c995960b21b604482015290519081900360640190fd5b6000805460ff191690556131ba611aa0565b506000836001600160a01b031663a6afed956040518163ffffffff1660e01b8152600401602060405180830381600087803b1580156131f857600080fd5b505af115801561320c573d6000803e3d6000fd5b505050506040513d602081101561322257600080fd5b50511461326f576040805162461bcd60e51b81526020600482015260166024820152751858d8dc9d59481a5b9d195c995cdd0819985a5b195960521b604482015290519081900360640190fd5b61327b338686866140dc565b915091506000805460ff191660011790559094909350915050565b60055460408051631ba1389f60e31b815290516000926001600160a01b03169163dd09c4f8916004808301926020929190829003018186803b1580156132db57600080fd5b505afa1580156132ef573d6000803e3d6000fd5b505050506040513d602081101561330557600080fd5b50516001600160a01b0316331480159061332f575060035461010090046001600160a01b03163314155b156133405761124160016047612483565b613348612846565b6009541461335c57611241600a6048612483565b670de0b6b3a76400008211156133785761124160026049612483565b6008805490839055604080518281526020810185905281517faaa68312e2ea9d50e16af5068410ab56e1a1fd06037b1a35664812c30f821460929181900390910190a160006111ff565b60055460408051631200453160e11b81523060048201526001600160a01b0386811660248301528581166044830152606482018590529151600093849384939116916324008a629160848082019260209290919082900301818787803b15801561342b57600080fd5b505af115801561343f573d6000803e3d6000fd5b505050506040513d602081101561345557600080fd5b5051905080156134795761346c6003603883613ecc565b9250600091506135cc9050565b613481612846565b600954146134955761346c600a6039612483565b61349d614c9a565b6001600160a01b03861660009081526010602052604090206001015460608201526134c7866127ef565b60808201526000198514156134e557608081015160408201526134ed565b604081018590525b6134fb878260400151613b9f565b60e08201819052608082015161351091612751565b60a0820152600b5460e08201516135279190612751565b60c0820190815260a080830180516001600160a01b03808b16600081815260106020908152604091829020948555600a546001909501949094559551600b81905560e088015194518751938f16845293830191909152818601939093526060810191909152608081019190915291517f1a2a22cb034d26d1854bdc6666a5b91fe25efbbb5dcad3b0355478d6f5c362a19281900390910190a160e00151600093509150505b935093915050565b60006111ff6135eb84670de0b6b3a7640000613e27565b8351613e69565b600554604080516317b9b84b60e31b81523060048201526001600160a01b03868116602483015285811660448301526064820185905291516000938493169163bdcdc25891608480830192602092919082900301818787803b15801561365757600080fd5b505af115801561366b573d6000803e3d6000fd5b505050506040513d602081101561368157600080fd5b50519050801561369857612bb96003604a83613ecc565b836001600160a01b0316856001600160a01b031614156136be57612bb96002604b612483565b60006001600160a01b0387811690871614156136dd5750600019613705565b506001600160a01b038086166000908152600f60209081526040808320938a16835292905220545b60008060006137148488612751565b6001600160a01b038a166000908152600e602052604090205490935061373a9088612751565b6001600160a01b0389166000908152600e602052604090205490925061376090886126ba565b6001600160a01b03808b166000908152600e6020526040808220869055918b16815220819055905060001984146137ba576001600160a01b03808a166000908152600f60209081526040808320938e168352929052208390555b876001600160a01b0316896001600160a01b0316600080516020614d8f833981519152896040518082815260200191505060405180910390a36000612f2d565b60055460408051638a0b5eef60e01b815290516000926001600160a01b031691638a0b5eef916004808301926020929190829003018186803b15801561383f57600080fd5b505afa158015613853573d6000803e3d6000fd5b505050506040513d602081101561386957600080fd5b505160408051631f3417cd60e31b815290519192506000916001600160a01b0384169163f9a0be68916004808301926020929190829003018186803b1580156138b157600080fd5b505afa1580156138c5573d6000803e3d6000fd5b505050506040513d60208110156138db57600080fd5b505190506001600160a01b038116156126fa57806001600160a01b031663bb458551846040518263ffffffff1660e01b815260040180826001600160a01b03166001600160a01b03168152602001915050600060405180830381600087803b15801561394657600080fd5b505af115801561395a573d6000803e3d6000fd5b50505050505050565b51670de0b6b3a7640000900490565b600080600080613980612846565b6009541461399f57613994600a604f612483565b93509150613a089050565b6139a93386613b9f565b90506139b7600c54826126ba565b600c819055604080513381526020810184905280820183905290519193507fa91e67c5ea634cd43a12c5a482724b03de01e85ca68702a53d0c2f45cb7c1dc5919081900360600190a1600093509150505b915091565b600083830182858210156111985760405162461bcd60e51b81526004018080602001828103825283818151815260200191508051906020019080838360005b83811015613a64578181015183820152602001613a4c565b50505050905090810190601f168015613a915780820380516001836020036101000a031916815260200191505b509250505060405180910390fd5b613aab60135482612751565b6013556011546040805163a9059cbb60e01b81526001600160a01b0385811660048301526024820185905291519190921691829163a9059cbb9160448082019260009290919082900301818387803b158015613b0657600080fd5b505af1158015613b1a573d6000803e3d6000fd5b5050505060003d60008114613b365760208114613b4057600080fd5b6000199150613b4c565b60206000803e60005191505b508061274b576040805162461bcd60e51b815260206004820152601960248201527f544f4b454e5f5452414e534645525f4f55545f4641494c454400000000000000604482015290519081900360640190fd5b601154604080516370a0823160e01b815230600482015290516000926001600160a01b031691839183916370a08231916024808301926020929190829003018186803b158015613bee57600080fd5b505afa158015613c02573d6000803e3d6000fd5b505050506040513d6020811015613c1857600080fd5b5051604080516323b872dd60e01b81526001600160a01b038881166004830152306024830152604482018890529151929350908416916323b872dd9160648082019260009290919082900301818387803b158015613c7557600080fd5b505af1158015613c89573d6000803e3d6000fd5b5050505060003d60008114613ca55760208114613caf57600080fd5b6000199150613cbb565b60206000803e60005191505b5080613d0e576040805162461bcd60e51b815260206004820152601860248201527f544f4b454e5f5452414e534645525f494e5f4641494c45440000000000000000604482015290519081900360640190fd5b601154604080516370a0823160e01b815230600482015290516000926001600160a01b0316916370a08231916024808301926020929190829003018186803b158015613d5957600080fd5b505afa158015613d6d573d6000803e3d6000fd5b505050506040513d6020811015613d8357600080fd5b505190506000613d938285612751565b9050613da1601354826126ba565b601355979650505050505050565b60008184841115613e015760405162461bcd60e51b8152602060048201818152835160248401528351909283926044909101919085019080838360008315613a64578181015183820152602001613a4c565b505050900390565b600080613e1785858561458d565b90508061235e5761235e856137fa565b60006111ff83836040518060400160405280601781526020017f6d756c7469706c69636174696f6e206f766572666c6f770000000000000000008152506148c4565b60006111ff83836040518060400160405280600e81526020016d646976696465206279207a65726f60901b81525061493a565b600080600080613eac868661499c565b909250905081613ebf57613ebf866137fa565b90925090505b9250929050565b60007f45b96fe442630264581b197e84bbada861235052c5a1aadfff9ea4e40a969aa0846010811115613efb57fe5b846050811115613f0757fe5b604080519283526020830191909152818101859052519081900360600190a183601081111561235e57fe5b6005546040805163368f515360e21b81523060048201526001600160a01b0385811660248301526044820185905291516000938493169163da3d454c91606480830192602092919082900301818787803b158015613f8f57600080fd5b505af1158015613fa3573d6000803e3d6000fd5b505050506040513d6020811015613fb957600080fd5b505190508015613fd057612fd36003600e83613ecc565b613fd8612846565b60095414613feb57612fd3600a80612483565b82613ff4612404565b101561400657612fd3600e6009612483565b61400e614ce0565b614017856127ef565b6020820181905261402890856126ba565b6040820152600b5461403a90856126ba565b606082019081526040808301516001600160a01b0388166000908152601060205291909120908155600a5460019091015551600b556140798585613a9f565b60408082015160608084015183516001600160a01b038a16815260208101899052808501939093529082015290517f13ed6866d4e1ee6da46f845c46d7e54120883d75c5ea9a2dacc1c4ca8984ab809181900360800190a1600095945050505050565b60055460408051632fe3f38f60e11b81523060048201526001600160a01b0384811660248301528781166044830152868116606483015260848201869052915160009384938493911691635fc7e71e9160a48082019260209290919082900301818787803b15801561414d57600080fd5b505af1158015614161573d6000803e3d6000fd5b505050506040513d602081101561417757600080fd5b50519050801561419b5761418e6003601283613ecc565b9250600091506145849050565b6141a3612846565b600954146141b75761418e600a6016612483565b6141bf612846565b846001600160a01b0316636c540baf6040518163ffffffff1660e01b815260040160206040518083038186803b1580156141f857600080fd5b505afa15801561420c573d6000803e3d6000fd5b505050506040513d602081101561422257600080fd5b5051146142355761418e600a6011612483565b866001600160a01b0316866001600160a01b0316141561425b5761418e60066017612483565b8461426c5761418e60076015612483565b6000198514156142825761418e60076014612483565b6000806142908989896133c2565b909250905081156142c0576142b18260108111156142aa57fe5b6018612483565b94506000935061458492505050565b6005546040805163c488847b60e01b81523060048201526001600160a01b038981166024830152604482018590528251600094859492169263c488847b926064808301939192829003018186803b15801561431a57600080fd5b505afa15801561432e573d6000803e3d6000fd5b505050506040513d604081101561434457600080fd5b5080516020909101519092509050811561435d57600080fd5b80886001600160a01b03166370a082318c6040518263ffffffff1660e01b815260040180826001600160a01b03166001600160a01b0316815260200191505060206040518083038186803b1580156143b457600080fd5b505afa1580156143c8573d6000803e3d6000fd5b505050506040513d60208110156143de57600080fd5b50511015614424576040805162461bcd60e51b815260206004820152600e60248201526d0e6cad2f4ca40e8dede40daeac6d60931b604482015290519081900360640190fd5b60006001600160a01b03891630141561444a57614443308d8d85612b0b565b90506144d4565b6040805163b2a02ff160e01b81526001600160a01b038e811660048301528d81166024830152604482018590529151918b169163b2a02ff1916064808201926020929091908290030181600087803b1580156144a557600080fd5b505af11580156144b9573d6000803e3d6000fd5b505050506040513d60208110156144cf57600080fd5b505190505b801561451e576040805162461bcd60e51b81526020600482015260146024820152731d1bdad95b881cd95a5e9d5c994819985a5b195960621b604482015290519081900360640190fd5b604080516001600160a01b03808f168252808e1660208301528183018790528b1660608201526080810184905290517f298637f684da70674f26509b10f07ec2fbc77a335ab1e7d6215a4b2484d8bb529181900360a00190a16000975092955050505050505b94509492505050565b600082158061459a575081155b6145d4576040805162461bcd60e51b815260206004808301919091526024820152637a65726f60e01b604482015290519081900360640190fd5b6145dc614d09565b6145e46122cd565b6040820152831561461a57606081018490526040805160208101825290820151815261461090856123e5565b6080820152614643565b6146368360405180602001604052808460400151815250614b92565b6060820152608081018390525b60055460608201516040805163eabe7d9160e01b81523060048201526001600160a01b03898116602483015260448201939093529051600093929092169163eabe7d919160648082019260209290919082900301818787803b1580156146a857600080fd5b505af11580156146bc573d6000803e3d6000fd5b505050506040513d60208110156146d257600080fd5b5051905080156146f2576146e96003602883613ecc565b925050506111ff565b6146fa612846565b6009541461470e576146e9600a602c612483565b61471e600d548360600151612751565b60a08301526001600160a01b0386166000908152600e6020526040902054606083015161474b9190612751565b60c0830152608082015161475d612404565b101561476f576146e9600e602f612483565b60a0820151600d5560c08201516001600160a01b0387166000908152600e602052604090205560808201516147a5908790613a9f565b6060820151604080519182525130916001600160a01b03891691600080516020614d8f8339815191529181900360200190a36080820151606080840151604080516001600160a01b038b168152602081019490945283810191909152517fe5b754fb1abb7f01b499791d0b820ae3b6af3424ac1c59768edb53f4ec31a9299281900390910190a160055460808301516060840151604080516351dff98960e01b81523060048201526001600160a01b038b81166024830152604482019490945260648101929092525191909216916351dff98991608480830192600092919082900301818387803b15801561489957600080fd5b505af11580156148ad573d6000803e3d6000fd5b50600092506148ba915050565b9695505050505050565b60008315806148d1575082155b156148de575060006111ff565b838302838582816148eb57fe5b041483906111985760405162461bcd60e51b8152602060048201818152835160248401528351909283926044909101919085019080838360008315613a64578181015183820152602001613a4c565b600081836149895760405162461bcd60e51b8152602060048201818152835160248401528351909283926044909101919085019080838360008315613a64578181015183820152602001613a4c565b5082848161499357fe5b04949350505050565b60055460408051634ef4c3e160e01b81523060048201526001600160a01b03858116602483015260448201859052915160009384938493911691634ef4c3e19160648082019260209290919082900301818787803b1580156149fd57600080fd5b505af1158015614a11573d6000803e3d6000fd5b505050506040513d6020811015614a2757600080fd5b505190508015614a4b57614a3e6003601f83613ecc565b925060009150613ec59050565b614a53612846565b60095414614a6757614a3e600a6022612483565b614a6f614d09565b614a776122cd565b6040820152614a868686613b9f565b60c0820181905260408051602081018252908301518152614aa79190614b92565b60608201819052600d54614aba916126ba565b600d556001600160a01b0386166000908152600e60205260409020546060820151614ae591906126ba565b6001600160a01b0387166000818152600e60209081526040918290209390935560c084015160608086015183519485529484019190915282820193909352517f4c209b5fc8ad50758f13e2e1088ba56a560dff690a1c6fef26394f4c03821c4f929181900390910190a1606081015160408051918252516001600160a01b038816913091600080516020614d8f8339815191529181900360200190a360c001516000969095509350505050565b6000614b9c614bde565b6123f98484614ba9614bde565b6000614bbd670de0b6b3a764000085613e27565b90506040518060200160405280614bd483866135d4565b9052949350505050565b6040518060200160405280600081525090565b828054600181600116156101000203166002900490600052602060002090601f016020900481019282601f10614c3257805160ff1916838001178555614c5f565b82800160010185558215614c5f579182015b82811115614c5f578251825591602001919060010190614c44565b5061232f929150614d47565b6040518060a0016040528060008152602001600081526020016000815260200160008152602001600081525090565b6040805161010081019091528060008152602001600081526020016000815260200160008152602001600081526020016000815260200160008152602001600081525090565b604080516080810190915280600081526020016000815260200160008152602001600081525090565b6040805160e0810190915280600081526020016000815260200160008152602001600081526020016000815260200160008152602001600081525090565b610f1f91905b8082111561232f5760008155600101614d4d56fe6f6e6c79207468652061646d696e206d61792063616c6c205f72657369676e496d706c656d656e746174696f6eddf252ad1be2c89b69c2b068fc378daa952ba7f163c4a11628f55a4df523b3ef6f6e6c79207468652061646d696e206d61792063616c6c205f6265636f6d65496d706c656d656e746174696f6ea265627a7a7231582080406777db8b1d118dd05b3379069ed5e173dc3d7539656dde4c40042155943464736f6c63430005110032",
  "devdoc": {
    "author": "Compound",
    "methods": {
      "_acceptAdmin()": {
        "details": "Admin function for pending admin to accept role and update admin",
        "return": "uint 0=success, otherwise a failure (see ErrorReporter.sol for details)"
      },
      "_addReserves(uint256)": {
        "params": {
          "addAmount": "The amount fo underlying token to add as reserves"
        },
        "return": "uint 0=success, otherwise a failure (see ErrorReporter.sol for details)"
      },
      "_becomeImplementation(bytes)": {
        "params": {
          "data": "The encoded bytes data for any initialization"
        }
      },
      "_reduceReserves(address,uint256)": {
        "params": {
          "reduceAmount": "Amount of reduction to reserves"
        },
        "return": "uint 0=success, otherwise a failure (see ErrorReporter.sol for details)"
      },
      "_setComptroller(address)": {
        "details": "Admin function to set a new comptroller",
        "return": "uint 0=success, otherwise a failure (see ErrorReporter.sol for details)"
      },
      "_setInterestRateModel(address)": {
        "details": "Admin function to accrue interest and update the interest rate model",
        "params": {
          "newInterestRateModel": "the new interest rate model to use"
        },
        "return": "uint 0=success, otherwise a failure (see ErrorReporter.sol for details)"
      },
      "_setPendingAdmin(address)": {
        "details": "Admin function to begin change of admin. The newPendingAdmin must call `_acceptAdmin` to finalize the transfer.",
        "params": {
          "newPendingAdmin": "New pending admin."
        },
        "return": "uint 0=success, otherwise a failure (see ErrorReporter.sol for details)"
      },
      "_setReserveFactor(uint256)": {
        "details": "Admin function to accrue interest and set a new reserve factor",
        "return": "uint 0=success, otherwise a failure (see ErrorReporter.sol for details)"
      },
      "accrueInterest()": {
        "details": "This calculates interest accrued from the last checkpointed block  up to the current block and writes new checkpoint to storage."
      },
      "allowance(address,address)": {
        "params": {
          "owner": "The address of the account which owns the tokens to be spent",
          "spender": "The address of the account which may transfer tokens"
        },
        "return": "The number of tokens allowed to be spent (-1 means infinite)"
      },
      "approve(address,uint256)": {
        "details": "This will overwrite the approval amount for `spender` and is subject to issues noted [here](https://eips.ethereum.org/EIPS/eip-20#approve)",
        "params": {
          "amount": "The number of tokens that are approved (-1 means infinite)",
          "spender": "The address of the account which may transfer tokens"
        },
        "return": "Whether or not the approval succeeded"
      },
      "balanceOf(address)": {
        "params": {
          "owner": "The address of the account to query"
        },
        "return": "The number of tokens owned by `owner`"
      },
      "balanceOfUnderlying(address)": {
        "details": "This also accrues interest in a transaction",
        "params": {
          "owner": "The address of the account to query"
        },
        "return": "The amount of underlying owned by `owner`"
      },
      "borrow(uint256)": {
        "params": {
          "borrowAmount": "The amount of the underlying asset to borrow"
        },
        "return": "uint 0=success, otherwise a failure (see ErrorReporter.sol for details)"
      },
      "borrowBalanceCurrent(address)": {
        "params": {
          "account": "The address whose balance should be calculated after updating borrowIndex"
        },
        "return": "The calculated balance"
      },
      "borrowBalanceStored(address)": {
        "params": {
          "account": "The address whose balance should be calculated"
        },
        "return": "The calculated balance"
      },
      "borrowRatePerBlock()": {
        "return": "The borrow interest rate per block, scaled by 1e18"
      },
      "exchangeRateCurrent()": {
        "return": "Calculated exchange rate scaled by 1e18"
      },
      "exchangeRateStored()": {
        "details": "This function does not accrue interest before calculating the exchange rate",
        "return": "Calculated exchange rate scaled by 1e18"
      },
      "flashFee(address,uint256)": {
        "details": "The fee to be charged for a given loan.",
        "params": {
          "amount": "The amount of tokens lent.",
          "token": "The loan currency."
        },
        "return": "The amount of `token` to be charged for the loan, on top of the returned principal."
      },
      "flashLoan(address,address,uint256,bytes)": {
        "details": "Initiate a flash loan.",
        "params": {
          "amount": "The amount of tokens lent.",
          "data": "Arbitrary data structure, intended to contain user-defined parameters.",
          "receiver": "The receiver of the tokens in the loan, and the receiver of the callback.",
          "token": "The loan currency."
        }
      },
      "getAccountSnapshot(address)": {
        "details": "This is used by comptroller to more efficiently perform liquidity checks.",
        "params": {
          "account": "Address of the account to snapshot"
        },
        "return": "(possible error, token balance, borrow balance, exchange rate mantissa)"
      },
      "getCash()": {
        "return": "The quantity of underlying asset owned by this contract"
      },
      "initialize(address,address,address,uint256,string,string,uint8)": {
        "params": {
          "comptroller_": "The address of the Comptroller",
          "decimals_": "ERC-20 decimal precision of this token",
          "initialExchangeRateMantissa_": "The initial exchange rate, scaled by 1e18",
          "interestRateModel_": "The address of the interest rate model",
          "name_": "ERC-20 name of this token",
          "symbol_": "ERC-20 symbol of this token",
          "underlying_": "The address of the underlying asset"
        }
      },
      "initialize(address,address,uint256,string,string,uint8)": {
        "params": {
          "comptroller_": "The address of the Comptroller",
          "decimals_": "EIP-20 decimal precision of this token",
          "initialExchangeRateMantissa_": "The initial exchange rate, scaled by 1e18",
          "interestRateModel_": "The address of the interest rate model",
          "name_": "EIP-20 name of this token",
          "symbol_": "EIP-20 symbol of this token"
        }
      },
      "liquidateBorrow(address,uint256,address)": {
        "params": {
          "borrower": "The borrower of this cToken to be liquidated",
          "cTokenCollateral": "The market in which to seize collateral from the borrower",
          "repayAmount": "The amount of the underlying borrowed asset to repay"
        },
        "return": "uint 0=success, otherwise a failure (see ErrorReporter.sol for details)"
      },
      "maxFlashLoan(address)": {
        "details": "The amount of currency available to be lent.",
        "params": {
          "token": "The loan currency."
        },
        "return": "The amount of `token` that can be borrowed."
      },
      "mint(uint256)": {
        "details": "Accrues interest whether or not the operation succeeds, unless reverted",
        "params": {
          "mintAmount": "The amount of the underlying asset to supply"
        },
        "return": "uint 0=success, otherwise a failure (see ErrorReporter.sol for details)"
      },
      "redeem(uint256)": {
        "details": "Accrues interest whether or not the operation succeeds, unless reverted",
        "params": {
          "redeemTokens": "The number of cTokens to redeem into underlying"
        },
        "return": "uint 0=success, otherwise a failure (see ErrorReporter.sol for details)"
      },
      "redeemUnderlying(uint256)": {
        "details": "Accrues interest whether or not the operation succeeds, unless reverted",
        "params": {
          "redeemAmount": "The amount of underlying to redeem"
        },
        "return": "uint 0=success, otherwise a failure (see ErrorReporter.sol for details)"
      },
      "repayBorrow(uint256)": {
        "params": {
          "repayAmount": "The amount to repay"
        },
        "return": "uint 0=success, otherwise a failure (see ErrorReporter.sol for details)"
      },
      "repayBorrowBehalf(address,uint256)": {
        "params": {
          "borrower": "the account with the debt being payed off",
          "repayAmount": "The amount to repay"
        },
        "return": "uint 0=success, otherwise a failure (see ErrorReporter.sol for details)"
      },
      "seize(address,address,uint256)": {
        "details": "Will fail unless called by another cToken during the process of liquidation. Its absolutely critical to use msg.sender as the borrowed cToken and not a parameter.",
        "params": {
          "borrower": "The account having collateral seized",
          "liquidator": "The account receiving seized collateral",
          "seizeTokens": "The number of cTokens to seize"
        },
        "return": "uint 0=success, otherwise a failure (see ErrorReporter.sol for details)"
      },
      "supplyRatePerBlock()": {
        "return": "The supply interest rate per block, scaled by 1e18"
      },
      "sweepToken(address)": {
        "params": {
          "token": "The address of the ERC-20 token to sweep"
        }
      },
      "totalBorrowsCurrent()": {
        "return": "The total borrows with interest"
      },
      "transfer(address,uint256)": {
        "params": {
          "amount": "The number of tokens to transfer",
          "dst": "The address of the destination account"
        },
        "return": "Whether or not the transfer succeeded"
      },
      "transferFrom(address,address,uint256)": {
        "params": {
          "amount": "The number of tokens to transfer",
          "dst": "The address of the destination account",
          "src": "The address of the source account"
        },
        "return": "Whether or not the transfer succeeded"
      }
    },
    "title": "Compound's CErc20Delegate Contract"
  },
  "userdoc": {
    "methods": {
      "_acceptAdmin()": {
        "notice": "Accepts transfer of admin rights. msg.sender must be pendingAdmin"
      },
      "_addReserves(uint256)": {
        "notice": "The sender adds to reserves."
      },
      "_becomeImplementation(bytes)": {
        "notice": "Called by the delegator on a delegate to initialize it for duty"
      },
      "_reduceReserves(address,uint256)": {
        "notice": "Accrues interest and reduces reserves by transferring to admin"
      },
      "_resignImplementation()": {
        "notice": "Called by the delegator on a delegate to forfeit its responsibility"
      },
      "_setComptroller(address)": {
        "notice": "Sets a new comptroller for the market"
      },
      "_setInterestRateModel(address)": {
        "notice": "accrues interest and updates the interest rate model using _setInterestRateModelFresh"
      },
      "_setPendingAdmin(address)": {
        "notice": "Begins transfer of admin rights. The newPendingAdmin must call `_acceptAdmin` to finalize the transfer."
      },
      "_setReserveFactor(uint256)": {
        "notice": "accrues interest and sets a new reserve factor for the protocol using _setReserveFactorFresh"
      },
      "accrueInterest()": {
        "notice": "Applies accrued interest to total borrows and reserves"
      },
      "allowance(address,address)": {
        "notice": "Get the current allowance from `owner` for `spender`"
      },
      "approve(address,uint256)": {
        "notice": "Approve `spender` to transfer up to `amount` from `src`"
      },
      "balanceOf(address)": {
        "notice": "Get the token balance of the `owner`"
      },
      "balanceOfUnderlying(address)": {
        "notice": "Get the underlying balance of the `owner`"
      },
      "borrow(uint256)": {
        "notice": "Sender borrows assets from the protocol to their own address"
      },
      "borrowBalanceCurrent(address)": {
        "notice": "Accrue interest to updated borrowIndex and then calculate account's borrow balance using the updated borrowIndex"
      },
      "borrowBalanceStored(address)": {
        "notice": "Return the borrow balance of account based on stored data"
      },
      "borrowRatePerBlock()": {
        "notice": "Returns the current per-block borrow interest rate for this cToken"
      },
      "constructor": "Construct an empty delegate",
      "exchangeRateCurrent()": {
        "notice": "Accrue interest then return the up-to-date exchange rate"
      },
      "exchangeRateStored()": {
        "notice": "Calculates the exchange rate from the underlying to the CToken"
      },
      "getAccountSnapshot(address)": {
        "notice": "Get a snapshot of the account's balances, and the cached exchange rate"
      },
      "getCash()": {
        "notice": "Get cash balance of this cToken in the underlying asset"
      },
      "gulp()": {
        "notice": "Absorb excess cash into reserves."
      },
      "initialize(address,address,address,uint256,string,string,uint8)": {
        "notice": "Initialize the new money market"
      },
      "initialize(address,address,uint256,string,string,uint8)": {
        "notice": "Initialize the money market"
      },
      "liquidateBorrow(address,uint256,address)": {
        "notice": "The sender liquidates the borrowers collateral. The collateral seized is transferred to the liquidator."
      },
      "mint(uint256)": {
        "notice": "Sender supplies assets into the market and receives cTokens in exchange"
      },
      "redeem(uint256)": {
        "notice": "Sender redeems cTokens in exchange for the underlying asset"
      },
      "redeemUnderlying(uint256)": {
        "notice": "Sender redeems cTokens in exchange for a specified amount of underlying asset"
      },
      "repayBorrow(uint256)": {
        "notice": "Sender repays their own borrow"
      },
      "repayBorrowBehalf(address,uint256)": {
        "notice": "Sender repays a borrow belonging to borrower"
      },
      "seize(address,address,uint256)": {
        "notice": "Transfers collateral tokens (this market) to the liquidator."
      },
      "supplyRatePerBlock()": {
        "notice": "Returns the current per-block supply interest rate for this cToken"
      },
      "sweepToken(address)": {
        "notice": "A public function to sweep accidental ERC-20 transfers to this contract. Tokens are sent to admin (timelock)"
      },
      "totalBorrowsCurrent()": {
        "notice": "Returns the current total borrows plus accrued interest"
      },
      "transfer(address,uint256)": {
        "notice": "Transfer `amount` tokens from `msg.sender` to `dst`"
      },
      "transferFrom(address,address,uint256)": {
        "notice": "Transfer `amount` tokens from `src` to `dst`"
      }
    },
    "notice": "CTokens which wrap an EIP-20 underlying and are delegated to"
  },
  "storageLayout": {
    "storage": [
      {
        "astId": 12403,
        "contract": "contracts/compound/CErc20Delegate.sol:CErc20Delegate",
        "label": "_notEntered",
        "offset": 0,
        "slot": "0",
        "type": "t_bool"
      },
      {
        "astId": 12405,
        "contract": "contracts/compound/CErc20Delegate.sol:CErc20Delegate",
        "label": "name",
        "offset": 0,
        "slot": "1",
        "type": "t_string_storage"
      },
      {
        "astId": 12407,
        "contract": "contracts/compound/CErc20Delegate.sol:CErc20Delegate",
        "label": "symbol",
        "offset": 0,
        "slot": "2",
        "type": "t_string_storage"
      },
      {
        "astId": 12409,
        "contract": "contracts/compound/CErc20Delegate.sol:CErc20Delegate",
        "label": "decimals",
        "offset": 0,
        "slot": "3",
        "type": "t_uint8"
      },
      {
        "astId": 12417,
        "contract": "contracts/compound/CErc20Delegate.sol:CErc20Delegate",
        "label": "admin",
        "offset": 1,
        "slot": "3",
        "type": "t_address_payable"
      },
      {
        "astId": 12419,
        "contract": "contracts/compound/CErc20Delegate.sol:CErc20Delegate",
        "label": "pendingAdmin",
        "offset": 0,
        "slot": "4",
        "type": "t_address_payable"
      },
      {
        "astId": 12421,
        "contract": "contracts/compound/CErc20Delegate.sol:CErc20Delegate",
        "label": "comptroller",
        "offset": 0,
        "slot": "5",
        "type": "t_contract(ComptrollerInterface)15606"
      },
      {
        "astId": 12423,
        "contract": "contracts/compound/CErc20Delegate.sol:CErc20Delegate",
        "label": "interestRateModel",
        "offset": 0,
        "slot": "6",
        "type": "t_contract(InterestRateModel)17411"
      },
      {
        "astId": 12425,
        "contract": "contracts/compound/CErc20Delegate.sol:CErc20Delegate",
        "label": "initialExchangeRateMantissa",
        "offset": 0,
        "slot": "7",
        "type": "t_uint256"
      },
      {
        "astId": 12427,
        "contract": "contracts/compound/CErc20Delegate.sol:CErc20Delegate",
        "label": "reserveFactorMantissa",
        "offset": 0,
        "slot": "8",
        "type": "t_uint256"
      },
      {
        "astId": 12429,
        "contract": "contracts/compound/CErc20Delegate.sol:CErc20Delegate",
        "label": "accrualBlockNumber",
        "offset": 0,
        "slot": "9",
        "type": "t_uint256"
      },
      {
        "astId": 12431,
        "contract": "contracts/compound/CErc20Delegate.sol:CErc20Delegate",
        "label": "borrowIndex",
        "offset": 0,
        "slot": "10",
        "type": "t_uint256"
      },
      {
        "astId": 12433,
        "contract": "contracts/compound/CErc20Delegate.sol:CErc20Delegate",
        "label": "totalBorrows",
        "offset": 0,
        "slot": "11",
        "type": "t_uint256"
      },
      {
        "astId": 12435,
        "contract": "contracts/compound/CErc20Delegate.sol:CErc20Delegate",
        "label": "totalReserves",
        "offset": 0,
        "slot": "12",
        "type": "t_uint256"
      },
      {
        "astId": 12437,
        "contract": "contracts/compound/CErc20Delegate.sol:CErc20Delegate",
        "label": "totalSupply",
        "offset": 0,
        "slot": "13",
        "type": "t_uint256"
      },
      {
        "astId": 12441,
        "contract": "contracts/compound/CErc20Delegate.sol:CErc20Delegate",
        "label": "accountTokens",
        "offset": 0,
        "slot": "14",
        "type": "t_mapping(t_address,t_uint256)"
      },
      {
        "astId": 12447,
        "contract": "contracts/compound/CErc20Delegate.sol:CErc20Delegate",
        "label": "transferAllowances",
        "offset": 0,
        "slot": "15",
        "type": "t_mapping(t_address,t_mapping(t_address,t_uint256))"
      },
      {
        "astId": 12456,
        "contract": "contracts/compound/CErc20Delegate.sol:CErc20Delegate",
        "label": "accountBorrows",
        "offset": 0,
        "slot": "16",
        "type": "t_mapping(t_address,t_struct(BorrowSnapshot)12452_storage)"
      },
      {
        "astId": 12762,
        "contract": "contracts/compound/CErc20Delegate.sol:CErc20Delegate",
        "label": "underlying",
        "offset": 0,
        "slot": "17",
        "type": "t_address"
      },
      {
        "astId": 12838,
        "contract": "contracts/compound/CErc20Delegate.sol:CErc20Delegate",
        "label": "implementation",
        "offset": 0,
        "slot": "18",
        "type": "t_address"
      },
      {
        "astId": 12843,
        "contract": "contracts/compound/CErc20Delegate.sol:CErc20Delegate",
        "label": "internalCash",
        "offset": 0,
        "slot": "19",
        "type": "t_uint256"
      }
    ],
    "types": {
      "t_address": {
        "encoding": "inplace",
        "label": "address",
        "numberOfBytes": "20"
      },
      "t_address_payable": {
        "encoding": "inplace",
        "label": "address payable",
        "numberOfBytes": "20"
      },
      "t_bool": {
        "encoding": "inplace",
        "label": "bool",
        "numberOfBytes": "1"
      },
      "t_contract(ComptrollerInterface)15606": {
        "encoding": "inplace",
        "label": "contract ComptrollerInterface",
        "numberOfBytes": "20"
      },
      "t_contract(InterestRateModel)17411": {
        "encoding": "inplace",
        "label": "contract InterestRateModel",
        "numberOfBytes": "20"
      },
      "t_mapping(t_address,t_mapping(t_address,t_uint256))": {
        "encoding": "mapping",
        "key": "t_address",
        "label": "mapping(address => mapping(address => uint256))",
        "numberOfBytes": "32",
        "value": "t_mapping(t_address,t_uint256)"
      },
      "t_mapping(t_address,t_struct(BorrowSnapshot)12452_storage)": {
        "encoding": "mapping",
        "key": "t_address",
        "label": "mapping(address => struct CTokenStorage.BorrowSnapshot)",
        "numberOfBytes": "32",
        "value": "t_struct(BorrowSnapshot)12452_storage"
      },
      "t_mapping(t_address,t_uint256)": {
        "encoding": "mapping",
        "key": "t_address",
        "label": "mapping(address => uint256)",
        "numberOfBytes": "32",
        "value": "t_uint256"
      },
      "t_string_storage": {
        "encoding": "bytes",
        "label": "string",
        "numberOfBytes": "32"
      },
      "t_struct(BorrowSnapshot)12452_storage": {
        "encoding": "inplace",
        "label": "struct CTokenStorage.BorrowSnapshot",
        "members": [
          {
            "astId": 12449,
            "contract": "contracts/compound/CErc20Delegate.sol:CErc20Delegate",
            "label": "principal",
            "offset": 0,
            "slot": "0",
            "type": "t_uint256"
          },
          {
            "astId": 12451,
            "contract": "contracts/compound/CErc20Delegate.sol:CErc20Delegate",
            "label": "interestIndex",
            "offset": 0,
            "slot": "1",
            "type": "t_uint256"
          }
        ],
        "numberOfBytes": "64"
      },
      "t_uint256": {
        "encoding": "inplace",
        "label": "uint256",
        "numberOfBytes": "32"
      },
      "t_uint8": {
        "encoding": "inplace",
        "label": "uint8",
        "numberOfBytes": "1"
      }
    }
  }
}